{
  "contractName": "RocketNFT",
  "abi": [
    {
      "inputs": [],
      "stateMutability": "nonpayable",
      "type": "constructor"
    },
    {
      "anonymous": false,
      "inputs": [
        {
          "indexed": true,
          "internalType": "address",
          "name": "owner",
          "type": "address"
        },
        {
          "indexed": true,
          "internalType": "address",
          "name": "approved",
          "type": "address"
        },
        {
          "indexed": true,
          "internalType": "uint256",
          "name": "tokenId",
          "type": "uint256"
        }
      ],
      "name": "Approval",
      "type": "event"
    },
    {
      "anonymous": false,
      "inputs": [
        {
          "indexed": true,
          "internalType": "address",
          "name": "owner",
          "type": "address"
        },
        {
          "indexed": true,
          "internalType": "address",
          "name": "operator",
          "type": "address"
        },
        {
          "indexed": false,
          "internalType": "bool",
          "name": "approved",
          "type": "bool"
        }
      ],
      "name": "ApprovalForAll",
      "type": "event"
    },
    {
      "anonymous": false,
      "inputs": [
        {
          "indexed": true,
          "internalType": "address",
          "name": "previousOwner",
          "type": "address"
        },
        {
          "indexed": true,
          "internalType": "address",
          "name": "newOwner",
          "type": "address"
        }
      ],
      "name": "OwnershipTransferred",
      "type": "event"
    },
    {
      "anonymous": false,
      "inputs": [
        {
          "indexed": false,
          "internalType": "address",
          "name": "account",
          "type": "address"
        }
      ],
      "name": "Paused",
      "type": "event"
    },
    {
      "anonymous": false,
      "inputs": [
        {
          "indexed": true,
          "internalType": "address",
          "name": "from",
          "type": "address"
        },
        {
          "indexed": true,
          "internalType": "address",
          "name": "to",
          "type": "address"
        },
        {
          "indexed": true,
          "internalType": "uint256",
          "name": "tokenId",
          "type": "uint256"
        }
      ],
      "name": "Transfer",
      "type": "event"
    },
    {
      "anonymous": false,
      "inputs": [
        {
          "indexed": false,
          "internalType": "address",
          "name": "account",
          "type": "address"
        }
      ],
      "name": "Unpaused",
      "type": "event"
    },
    {
      "inputs": [],
      "name": "ROCKETTOKENADDRESS",
      "outputs": [
        {
          "internalType": "address",
          "name": "",
          "type": "address"
        }
      ],
      "stateMutability": "view",
      "type": "function",
      "constant": true
    },
    {
      "inputs": [
        {
          "internalType": "address",
          "name": "to",
          "type": "address"
        },
        {
          "internalType": "uint256",
          "name": "tokenId",
          "type": "uint256"
        }
      ],
      "name": "approve",
      "outputs": [],
      "stateMutability": "nonpayable",
      "type": "function"
    },
    {
      "inputs": [
        {
          "internalType": "address",
          "name": "owner",
          "type": "address"
        }
      ],
      "name": "balanceOf",
      "outputs": [
        {
          "internalType": "uint256",
          "name": "",
          "type": "uint256"
        }
      ],
      "stateMutability": "view",
      "type": "function",
      "constant": true
    },
    {
      "inputs": [
        {
          "internalType": "address",
          "name": "",
          "type": "address"
        }
      ],
      "name": "freeMintUsed",
      "outputs": [
        {
          "internalType": "bool",
          "name": "",
          "type": "bool"
        }
      ],
      "stateMutability": "view",
      "type": "function",
      "constant": true
    },
    {
      "inputs": [
        {
          "internalType": "uint256",
          "name": "tokenId",
          "type": "uint256"
        }
      ],
      "name": "getApproved",
      "outputs": [
        {
          "internalType": "address",
          "name": "",
          "type": "address"
        }
      ],
      "stateMutability": "view",
      "type": "function",
      "constant": true
    },
    {
      "inputs": [
        {
          "internalType": "address",
          "name": "owner",
          "type": "address"
        },
        {
          "internalType": "address",
          "name": "operator",
          "type": "address"
        }
      ],
      "name": "isApprovedForAll",
      "outputs": [
        {
          "internalType": "bool",
          "name": "",
          "type": "bool"
        }
      ],
      "stateMutability": "view",
      "type": "function",
      "constant": true
    },
    {
      "inputs": [],
      "name": "maticPrice",
      "outputs": [
        {
          "internalType": "uint256",
          "name": "",
          "type": "uint256"
        }
      ],
      "stateMutability": "view",
      "type": "function",
      "constant": true
    },
    {
      "inputs": [],
      "name": "name",
      "outputs": [
        {
          "internalType": "string",
          "name": "",
          "type": "string"
        }
      ],
      "stateMutability": "view",
      "type": "function",
      "constant": true
    },
    {
      "inputs": [],
      "name": "owner",
      "outputs": [
        {
          "internalType": "address",
          "name": "",
          "type": "address"
        }
      ],
      "stateMutability": "view",
      "type": "function",
      "constant": true
    },
    {
      "inputs": [
        {
          "internalType": "uint256",
          "name": "tokenId",
          "type": "uint256"
        }
      ],
      "name": "ownerOf",
      "outputs": [
        {
          "internalType": "address",
          "name": "",
          "type": "address"
        }
      ],
      "stateMutability": "view",
      "type": "function",
      "constant": true
    },
    {
      "inputs": [],
      "name": "paused",
      "outputs": [
        {
          "internalType": "bool",
          "name": "",
          "type": "bool"
        }
      ],
      "stateMutability": "view",
      "type": "function",
      "constant": true
    },
    {
      "inputs": [],
      "name": "renounceOwnership",
      "outputs": [],
      "stateMutability": "nonpayable",
      "type": "function"
    },
    {
      "inputs": [],
      "name": "rocketPrice",
      "outputs": [
        {
          "internalType": "uint256",
          "name": "",
          "type": "uint256"
        }
      ],
      "stateMutability": "view",
      "type": "function",
      "constant": true
    },
    {
      "inputs": [
        {
          "internalType": "address",
          "name": "from",
          "type": "address"
        },
        {
          "internalType": "address",
          "name": "to",
          "type": "address"
        },
        {
          "internalType": "uint256",
          "name": "tokenId",
          "type": "uint256"
        }
      ],
      "name": "safeTransferFrom",
      "outputs": [],
      "stateMutability": "nonpayable",
      "type": "function"
    },
    {
      "inputs": [
        {
          "internalType": "address",
          "name": "from",
          "type": "address"
        },
        {
          "internalType": "address",
          "name": "to",
          "type": "address"
        },
        {
          "internalType": "uint256",
          "name": "tokenId",
          "type": "uint256"
        },
        {
          "internalType": "bytes",
          "name": "_data",
          "type": "bytes"
        }
      ],
      "name": "safeTransferFrom",
      "outputs": [],
      "stateMutability": "nonpayable",
      "type": "function"
    },
    {
      "inputs": [
        {
          "internalType": "address",
          "name": "operator",
          "type": "address"
        },
        {
          "internalType": "bool",
          "name": "approved",
          "type": "bool"
        }
      ],
      "name": "setApprovalForAll",
      "outputs": [],
      "stateMutability": "nonpayable",
      "type": "function"
    },
    {
      "inputs": [],
      "name": "symbol",
      "outputs": [
        {
          "internalType": "string",
          "name": "",
          "type": "string"
        }
      ],
      "stateMutability": "view",
      "type": "function",
      "constant": true
    },
    {
      "inputs": [
        {
          "internalType": "uint256",
          "name": "index",
          "type": "uint256"
        }
      ],
      "name": "tokenByIndex",
      "outputs": [
        {
          "internalType": "uint256",
          "name": "",
          "type": "uint256"
        }
      ],
      "stateMutability": "view",
      "type": "function",
      "constant": true
    },
    {
      "inputs": [
        {
          "internalType": "address",
          "name": "owner",
          "type": "address"
        },
        {
          "internalType": "uint256",
          "name": "index",
          "type": "uint256"
        }
      ],
      "name": "tokenOfOwnerByIndex",
      "outputs": [
        {
          "internalType": "uint256",
          "name": "",
          "type": "uint256"
        }
      ],
      "stateMutability": "view",
      "type": "function",
      "constant": true
    },
    {
      "inputs": [],
      "name": "totalSupply",
      "outputs": [
        {
          "internalType": "uint256",
          "name": "",
          "type": "uint256"
        }
      ],
      "stateMutability": "view",
      "type": "function",
      "constant": true
    },
    {
      "inputs": [
        {
          "internalType": "address",
          "name": "from",
          "type": "address"
        },
        {
          "internalType": "address",
          "name": "to",
          "type": "address"
        },
        {
          "internalType": "uint256",
          "name": "tokenId",
          "type": "uint256"
        }
      ],
      "name": "transferFrom",
      "outputs": [],
      "stateMutability": "nonpayable",
      "type": "function"
    },
    {
      "inputs": [
        {
          "internalType": "address",
          "name": "newOwner",
          "type": "address"
        }
      ],
      "name": "transferOwnership",
      "outputs": [],
      "stateMutability": "nonpayable",
      "type": "function"
    },
    {
      "inputs": [
        {
          "internalType": "address",
          "name": "",
          "type": "address"
        }
      ],
      "name": "whitelisted",
      "outputs": [
        {
          "internalType": "bool",
          "name": "",
          "type": "bool"
        }
      ],
      "stateMutability": "view",
      "type": "function",
      "constant": true
    },
    {
      "inputs": [
        {
          "internalType": "address",
          "name": "requester",
          "type": "address"
        },
        {
          "internalType": "string",
          "name": "ipfs",
          "type": "string"
        }
      ],
      "name": "mintForFree",
      "outputs": [],
      "stateMutability": "nonpayable",
      "type": "function"
    },
    {
      "inputs": [
        {
          "internalType": "address",
          "name": "requester",
          "type": "address"
        },
        {
          "internalType": "string",
          "name": "ipfs",
          "type": "string"
        }
      ],
      "name": "mintWithMatic",
      "outputs": [],
      "stateMutability": "payable",
      "type": "function",
      "payable": true
    },
    {
      "inputs": [
        {
          "internalType": "address",
          "name": "requester",
          "type": "address"
        },
        {
          "internalType": "string",
          "name": "ipfs",
          "type": "string"
        }
      ],
      "name": "mintWithRocket",
      "outputs": [],
      "stateMutability": "payable",
      "type": "function",
      "payable": true
    },
    {
      "inputs": [
        {
          "internalType": "address",
          "name": "requester",
          "type": "address"
        }
      ],
      "name": "checkRocketBalance",
      "outputs": [
        {
          "internalType": "uint256",
          "name": "",
          "type": "uint256"
        }
      ],
      "stateMutability": "view",
      "type": "function",
      "constant": true
    },
    {
      "inputs": [],
      "name": "withdrawWithMatic",
      "outputs": [],
      "stateMutability": "payable",
      "type": "function",
      "payable": true
    },
    {
      "inputs": [],
      "name": "withdrawWithRocket",
      "outputs": [],
      "stateMutability": "nonpayable",
      "type": "function"
    },
    {
      "inputs": [
        {
          "internalType": "address",
          "name": "rocketTokenAddress",
          "type": "address"
        }
      ],
      "name": "setRocketTokenAddress",
      "outputs": [
        {
          "internalType": "address",
          "name": "",
          "type": "address"
        }
      ],
      "stateMutability": "nonpayable",
      "type": "function"
    },
    {
      "inputs": [],
      "name": "confirmRocketTokenAddress",
      "outputs": [
        {
          "internalType": "address",
          "name": "",
          "type": "address"
        }
      ],
      "stateMutability": "view",
      "type": "function",
      "constant": true
    },
    {
      "inputs": [
        {
          "internalType": "uint256",
          "name": "tokenId",
          "type": "uint256"
        }
      ],
      "name": "getAllowance",
      "outputs": [
        {
          "internalType": "address",
          "name": "",
          "type": "address"
        }
      ],
      "stateMutability": "view",
      "type": "function",
      "constant": true
    },
    {
      "inputs": [
        {
          "internalType": "address",
          "name": "requester",
          "type": "address"
        }
      ],
      "name": "isWhitelisted",
      "outputs": [
        {
          "internalType": "bool",
          "name": "",
          "type": "bool"
        }
      ],
      "stateMutability": "view",
      "type": "function",
      "constant": true
    },
    {
      "inputs": [
        {
          "internalType": "address",
          "name": "requester",
          "type": "address"
        }
      ],
      "name": "checkFreeMintUsage",
      "outputs": [
        {
          "internalType": "bool",
          "name": "",
          "type": "bool"
        }
      ],
      "stateMutability": "view",
      "type": "function",
      "constant": true
    },
    {
      "inputs": [
        {
          "internalType": "uint256[]",
          "name": "tokenIds",
          "type": "uint256[]"
        }
      ],
      "name": "getTokenURIs",
      "outputs": [
        {
          "internalType": "string[]",
          "name": "",
          "type": "string[]"
        }
      ],
      "stateMutability": "view",
      "type": "function",
      "constant": true
    },
    {
      "inputs": [
        {
          "internalType": "address",
          "name": "requester",
          "type": "address"
        }
      ],
      "name": "isEligibleForFreeNFT",
      "outputs": [
        {
          "internalType": "bool",
          "name": "",
          "type": "bool"
        }
      ],
      "stateMutability": "view",
      "type": "function",
      "constant": true
    },
    {
      "inputs": [
        {
          "internalType": "address",
          "name": "owner",
          "type": "address"
        }
      ],
      "name": "getTokenIdsOfOwner",
      "outputs": [
        {
          "internalType": "uint256[]",
          "name": "",
          "type": "uint256[]"
        }
      ],
      "stateMutability": "view",
      "type": "function",
      "constant": true
    },
    {
      "inputs": [
        {
          "internalType": "address",
          "name": "receiver",
          "type": "address"
        }
      ],
      "name": "addToWhitelist",
      "outputs": [],
      "stateMutability": "nonpayable",
      "type": "function"
    },
    {
      "inputs": [
        {
          "internalType": "address",
          "name": "to",
          "type": "address"
        },
        {
          "internalType": "string",
          "name": "ipfsURI",
          "type": "string"
        }
      ],
      "name": "safeMint",
      "outputs": [],
      "stateMutability": "nonpayable",
      "type": "function"
    },
    {
      "inputs": [],
      "name": "pause",
      "outputs": [],
      "stateMutability": "nonpayable",
      "type": "function"
    },
    {
      "inputs": [],
      "name": "unpause",
      "outputs": [],
      "stateMutability": "nonpayable",
      "type": "function"
    },
    {
      "inputs": [
        {
          "internalType": "uint256",
          "name": "tokenId",
          "type": "uint256"
        }
      ],
      "name": "burn",
      "outputs": [],
      "stateMutability": "nonpayable",
      "type": "function"
    },
    {
      "inputs": [
        {
          "internalType": "uint256",
          "name": "tokenId",
          "type": "uint256"
        }
      ],
      "name": "tokenURI",
      "outputs": [
        {
          "internalType": "string",
          "name": "",
          "type": "string"
        }
      ],
      "stateMutability": "view",
      "type": "function",
      "constant": true
    },
    {
      "inputs": [
        {
          "internalType": "bytes4",
          "name": "interfaceId",
          "type": "bytes4"
        }
      ],
      "name": "supportsInterface",
      "outputs": [
        {
          "internalType": "bool",
          "name": "",
          "type": "bool"
        }
      ],
      "stateMutability": "view",
      "type": "function",
      "constant": true
    }
  ],
  "bytecode": "0x60806040523480156200001157600080fd5b506040518060400160405280600981526020017f526f636b65744e465400000000000000000000000000000000000000000000008152506040518060400160405280600281526020017f524500000000000000000000000000000000000000000000000000000000000081525081600090805190602001906200009692919062000538565b508060019080519060200190620000af92919062000538565b5050506000600760006101000a81548160ff021916908315150217905550620000ed620000e16200046a60201b60201c565b6200047260201b60201c565b6001600d8190555067016345785d8a0000600e8190555060016013600073ec206446346bf108e31cb79d28e93070dcc99fb873ffffffffffffffffffffffffffffffffffffffff1673ffffffffffffffffffffffffffffffffffffffff16815260200190815260200160002060006101000a81548160ff02191690831515021790555060016013600073db1024d778ce348eff7faed22ccc270e4af5dedd73ffffffffffffffffffffffffffffffffffffffff1673ffffffffffffffffffffffffffffffffffffffff16815260200190815260200160002060006101000a81548160ff02191690831515021790555060016013600073d1679bb3543e8ad195ff9f3ac3436039ba38923773ffffffffffffffffffffffffffffffffffffffff1673ffffffffffffffffffffffffffffffffffffffff16815260200190815260200160002060006101000a81548160ff02191690831515021790555060016013600073f4f555ca1586c40067cd215578f123d30813de0273ffffffffffffffffffffffffffffffffffffffff1673ffffffffffffffffffffffffffffffffffffffff16815260200190815260200160002060006101000a81548160ff021916908315150217905550600160136000735563d3361408d41bf172e3720c30b0e35f19a44473ffffffffffffffffffffffffffffffffffffffff1673ffffffffffffffffffffffffffffffffffffffff16815260200190815260200160002060006101000a81548160ff021916908315150217905550600160136000736ffdaf0795d208c11c583c88cb5dbd2a8955a59e73ffffffffffffffffffffffffffffffffffffffff1673ffffffffffffffffffffffffffffffffffffffff16815260200190815260200160002060006101000a81548160ff02191690831515021790555060016013600073fb4736eade1a08c42e65aa187dd32c36e160aacc73ffffffffffffffffffffffffffffffffffffffff1673ffffffffffffffffffffffffffffffffffffffff16815260200190815260200160002060006101000a81548160ff021916908315150217905550600160136000734b507f8f6a7b1650e926483f2b0dcb6faec9fcb173ffffffffffffffffffffffffffffffffffffffff1673ffffffffffffffffffffffffffffffffffffffff16815260200190815260200160002060006101000a81548160ff0219169083151502179055506200064c565b600033905090565b6000600760019054906101000a900473ffffffffffffffffffffffffffffffffffffffff16905081600760016101000a81548173ffffffffffffffffffffffffffffffffffffffff021916908373ffffffffffffffffffffffffffffffffffffffff1602179055508173ffffffffffffffffffffffffffffffffffffffff168173ffffffffffffffffffffffffffffffffffffffff167f8be0079c531659141344cd1fd0a4f28419497f9722a3daafe3b4186f6b6457e060405160405180910390a35050565b828054620005469062000617565b90600052602060002090601f0160209004810192826200056a5760008555620005b6565b82601f106200058557805160ff1916838001178555620005b6565b82800160010185558215620005b6579182015b82811115620005b557825182559160200191906001019062000598565b5b509050620005c59190620005c9565b5090565b5b80821115620005e4576000816000905550600101620005ca565b5090565b7f4e487b7100000000000000000000000000000000000000000000000000000000600052602260045260246000fd5b600060028204905060018216806200063057607f821691505b602082108103620006465762000645620005e8565b5b50919050565b6152b9806200065c6000396000f3fe6080604052600436106102675760003560e01c80636fb07a3611610144578063c960174e116100b6578063d936547e1161007a578063d936547e14610960578063dbedf0b61461099d578063e43252d7146109c6578063e985e9c5146109ef578063f2fde38b14610a2c578063f3ddd02714610a5557610267565b8063c960174e14610855578063c9e2f14514610892578063d204c45e146108cf578063d5363035146108f8578063d8ac7e081461092357610267565b80638da5cb5b116101085780638da5cb5b1461073357806395d89b411461075e578063a22cb46514610789578063b88d4fde146107b2578063bf729607146107db578063c87b56dd1461081857610267565b80636fb07a361461067457806370a08231146106b1578063715018a6146106ee57806372561ecc146107055780638456cb591461071c57610267565b80633b67a760116101dd57806345ea451a116101a157806345ea451a1461053c5780634f6ccce7146105675780635c975abb146105a457806361e4dd68146105cf5780636257e2a6146105fa5780636352211e1461063757610267565b80633b67a7601461048c5780633f4ba83a1461049657806342842e0e146104ad57806342966c68146104d6578063456cc814146104ff57610267565b8063145227721161022f578063145227721461037757806318160ddd1461039357806323b872dd146103be5780632f745c59146103e757806334fedd67146104245780633af32abf1461044f57610267565b806301ffc9a71461026c57806306fdde03146102a9578063081812fc146102d457806308a5d0ad14610311578063095ea7b31461034e575b600080fd5b34801561027857600080fd5b50610293600480360381019061028e919061381a565b610a71565b6040516102a09190613862565b60405180910390f35b3480156102b557600080fd5b506102be610a83565b6040516102cb9190613916565b60405180910390f35b3480156102e057600080fd5b506102fb60048036038101906102f6919061396e565b610b15565b60405161030891906139dc565b60405180910390f35b34801561031d57600080fd5b5061033860048036038101906103339190613a23565b610b9a565b6040516103459190613b0e565b60405180910390f35b34801561035a57600080fd5b5061037560048036038101906103709190613b30565b610c50565b005b610391600480360381019061038c9190613ca5565b610d67565b005b34801561039f57600080fd5b506103a8610dba565b6040516103b59190613d10565b60405180910390f35b3480156103ca57600080fd5b506103e560048036038101906103e09190613d2b565b610dc7565b005b3480156103f357600080fd5b5061040e60048036038101906104099190613b30565b610e27565b60405161041b9190613d10565b60405180910390f35b34801561043057600080fd5b50610439610ecc565b60405161044691906139dc565b60405180910390f35b34801561045b57600080fd5b5061047660048036038101906104719190613a23565b610ef6565b6040516104839190613862565b60405180910390f35b610494610f4c565b005b3480156104a257600080fd5b506104ab611011565b005b3480156104b957600080fd5b506104d460048036038101906104cf9190613d2b565b611097565b005b3480156104e257600080fd5b506104fd60048036038101906104f8919061396e565b6110b7565b005b34801561050b57600080fd5b5061052660048036038101906105219190613a23565b6110c3565b6040516105339190613862565b60405180910390f35b34801561054857600080fd5b506105516110e3565b60405161055e9190613d10565b60405180910390f35b34801561057357600080fd5b5061058e6004803603810190610589919061396e565b6110e9565b60405161059b9190613d10565b60405180910390f35b3480156105b057600080fd5b506105b961115a565b6040516105c69190613862565b60405180910390f35b3480156105db57600080fd5b506105e4611171565b6040516105f191906139dc565b60405180910390f35b34801561060657600080fd5b50610621600480360381019061061c9190613a23565b611197565b60405161062e91906139dc565b60405180910390f35b34801561064357600080fd5b5061065e6004803603810190610659919061396e565b61125c565b60405161066b91906139dc565b60405180910390f35b34801561068057600080fd5b5061069b60048036038101906106969190613a23565b61130d565b6040516106a89190613862565b60405180910390f35b3480156106bd57600080fd5b506106d860048036038101906106d39190613a23565b611363565b6040516106e59190613d10565b60405180910390f35b3480156106fa57600080fd5b5061070361141a565b005b34801561071157600080fd5b5061071a6114a2565b005b34801561072857600080fd5b50610731611646565b005b34801561073f57600080fd5b506107486116cc565b60405161075591906139dc565b60405180910390f35b34801561076a57600080fd5b506107736116f6565b6040516107809190613916565b60405180910390f35b34801561079557600080fd5b506107b060048036038101906107ab9190613daa565b611788565b005b3480156107be57600080fd5b506107d960048036038101906107d49190613e8b565b61179e565b005b3480156107e757600080fd5b5061080260048036038101906107fd9190613fd6565b611800565b60405161080f919061412b565b60405180910390f35b34801561082457600080fd5b5061083f600480360381019061083a919061396e565b6118bf565b60405161084c9190613916565b60405180910390f35b34801561086157600080fd5b5061087c6004803603810190610877919061396e565b6118d1565b60405161088991906139dc565b60405180910390f35b34801561089e57600080fd5b506108b960048036038101906108b49190613a23565b61190e565b6040516108c69190613d10565b60405180910390f35b3480156108db57600080fd5b506108f660048036038101906108f19190613ca5565b6119be565b005b34801561090457600080fd5b5061090d6119ef565b60405161091a9190613d10565b60405180910390f35b34801561092f57600080fd5b5061094a60048036038101906109459190613a23565b6119f5565b6040516109579190613862565b60405180910390f35b34801561096c57600080fd5b5061098760048036038101906109829190613a23565b611ab8565b6040516109949190613862565b60405180910390f35b3480156109a957600080fd5b506109c460048036038101906109bf9190613ca5565b611ad8565b005b3480156109d257600080fd5b506109ed60048036038101906109e89190613a23565b611bf6565b005b3480156109fb57600080fd5b50610a166004803603810190610a11919061414d565b611ccd565b604051610a239190613862565b60405180910390f35b348015610a3857600080fd5b50610a536004803603810190610a4e9190613a23565b611d61565b005b610a6f6004803603810190610a6a9190613ca5565b611e58565b005b6000610a7c82611f10565b9050919050565b606060008054610a92906141bc565b80601f0160208091040260200160405190810160405280929190818152602001828054610abe906141bc565b8015610b0b5780601f10610ae057610100808354040283529160200191610b0b565b820191906000526020600020905b815481529060010190602001808311610aee57829003601f168201915b5050505050905090565b6000610b2082611f8a565b610b5f576040517f08c379a0000000000000000000000000000000000000000000000000000000008152600401610b569061425f565b60405180910390fd5b6004600083815260200190815260200160002060009054906101000a900473ffffffffffffffffffffffffffffffffffffffff169050919050565b60606000610ba783611363565b67ffffffffffffffff811115610bc057610bbf613b7a565b5b604051908082528060200260200182016040528015610bee5781602001602082028036833780820191505090505b5090506000610bfc84611363565b905060005b81811015610c4557610c138582610e27565b838281518110610c2657610c2561427f565b5b6020026020010181815250508080610c3d906142dd565b915050610c01565b829350505050919050565b6000610c5b8261125c565b90508073ffffffffffffffffffffffffffffffffffffffff168373ffffffffffffffffffffffffffffffffffffffff1603610ccb576040517f08c379a0000000000000000000000000000000000000000000000000000000008152600401610cc290614397565b60405180910390fd5b8073ffffffffffffffffffffffffffffffffffffffff16610cea611ff6565b73ffffffffffffffffffffffffffffffffffffffff161480610d195750610d1881610d13611ff6565b611ccd565b5b610d58576040517f08c379a0000000000000000000000000000000000000000000000000000000008152600401610d4f90614429565b60405180910390fd5b610d628383611ffe565b505050565b600e54341015610dac576040517f08c379a0000000000000000000000000000000000000000000000000000000008152600401610da3906144bb565b60405180910390fd5b610db682826119be565b5050565b6000600a80549050905090565b610dd8610dd2611ff6565b826120b7565b610e17576040517f08c379a0000000000000000000000000000000000000000000000000000000008152600401610e0e9061454d565b60405180910390fd5b610e22838383612195565b505050565b6000610e3283611363565b8210610e73576040517f08c379a0000000000000000000000000000000000000000000000000000000008152600401610e6a906145df565b60405180910390fd5b600860008473ffffffffffffffffffffffffffffffffffffffff1673ffffffffffffffffffffffffffffffffffffffff168152602001908152602001600020600083815260200190815260200160002054905092915050565b6000600f60009054906101000a900473ffffffffffffffffffffffffffffffffffffffff16905090565b6000601360008373ffffffffffffffffffffffffffffffffffffffff1673ffffffffffffffffffffffffffffffffffffffff16815260200190815260200160002060009054906101000a900460ff169050919050565b610f54611ff6565b73ffffffffffffffffffffffffffffffffffffffff16610f726116cc565b73ffffffffffffffffffffffffffffffffffffffff1614610fc8576040517f08c379a0000000000000000000000000000000000000000000000000000000008152600401610fbf9061464b565b60405180910390fd5b3373ffffffffffffffffffffffffffffffffffffffff166108fc479081150290604051600060405180830381858888f1935050505015801561100e573d6000803e3d6000fd5b50565b611019611ff6565b73ffffffffffffffffffffffffffffffffffffffff166110376116cc565b73ffffffffffffffffffffffffffffffffffffffff161461108d576040517f08c379a00000000000000000000000000000000000000000000000000000000081526004016110849061464b565b60405180910390fd5b6110956123fb565b565b6110b28383836040518060200160405280600081525061179e565b505050565b6110c08161249d565b50565b60126020528060005260406000206000915054906101000a900460ff1681565b600e5481565b60006110f3610dba565b8210611134576040517f08c379a000000000000000000000000000000000000000000000000000000000815260040161112b906146dd565b60405180910390fd5b600a82815481106111485761114761427f565b5b90600052602060002001549050919050565b6000600760009054906101000a900460ff16905090565b600f60009054906101000a900473ffffffffffffffffffffffffffffffffffffffff1681565b60006111a1611ff6565b73ffffffffffffffffffffffffffffffffffffffff166111bf6116cc565b73ffffffffffffffffffffffffffffffffffffffff1614611215576040517f08c379a000000000000000000000000000000000000000000000000000000000815260040161120c9061464b565b60405180910390fd5b81600f60006101000a81548173ffffffffffffffffffffffffffffffffffffffff021916908373ffffffffffffffffffffffffffffffffffffffff16021790559050919050565b6000806002600084815260200190815260200160002060009054906101000a900473ffffffffffffffffffffffffffffffffffffffff169050600073ffffffffffffffffffffffffffffffffffffffff168173ffffffffffffffffffffffffffffffffffffffff1603611304576040517f08c379a00000000000000000000000000000000000000000000000000000000081526004016112fb9061476f565b60405180910390fd5b80915050919050565b6000601260008373ffffffffffffffffffffffffffffffffffffffff1673ffffffffffffffffffffffffffffffffffffffff16815260200190815260200160002060009054906101000a900460ff169050919050565b60008073ffffffffffffffffffffffffffffffffffffffff168273ffffffffffffffffffffffffffffffffffffffff16036113d3576040517f08c379a00000000000000000000000000000000000000000000000000000000081526004016113ca90614801565b60405180910390fd5b600360008373ffffffffffffffffffffffffffffffffffffffff1673ffffffffffffffffffffffffffffffffffffffff168152602001908152602001600020549050919050565b611422611ff6565b73ffffffffffffffffffffffffffffffffffffffff166114406116cc565b73ffffffffffffffffffffffffffffffffffffffff1614611496576040517f08c379a000000000000000000000000000000000000000000000000000000000815260040161148d9061464b565b60405180910390fd5b6114a060006124a9565b565b6114aa611ff6565b73ffffffffffffffffffffffffffffffffffffffff166114c86116cc565b73ffffffffffffffffffffffffffffffffffffffff161461151e576040517f08c379a00000000000000000000000000000000000000000000000000000000081526004016115159061464b565b60405180910390fd5b6000600f60009054906101000a900473ffffffffffffffffffffffffffffffffffffffff16905060008173ffffffffffffffffffffffffffffffffffffffff166370a08231306040518263ffffffff1660e01b815260040161158091906139dc565b602060405180830381865afa15801561159d573d6000803e3d6000fd5b505050506040513d601f19601f820116820180604052508101906115c19190614836565b90508173ffffffffffffffffffffffffffffffffffffffff1663a9059cbb33836040518363ffffffff1660e01b81526004016115fe929190614863565b6020604051808303816000875af115801561161d573d6000803e3d6000fd5b505050506040513d601f19601f8201168201806040525081019061164191906148a1565b505050565b61164e611ff6565b73ffffffffffffffffffffffffffffffffffffffff1661166c6116cc565b73ffffffffffffffffffffffffffffffffffffffff16146116c2576040517f08c379a00000000000000000000000000000000000000000000000000000000081526004016116b99061464b565b60405180910390fd5b6116ca61256f565b565b6000600760019054906101000a900473ffffffffffffffffffffffffffffffffffffffff16905090565b606060018054611705906141bc565b80601f0160208091040260200160405190810160405280929190818152602001828054611731906141bc565b801561177e5780601f106117535761010080835404028352916020019161177e565b820191906000526020600020905b81548152906001019060200180831161176157829003601f168201915b5050505050905090565b61179a611793611ff6565b8383612612565b5050565b6117af6117a9611ff6565b836120b7565b6117ee576040517f08c379a00000000000000000000000000000000000000000000000000000000081526004016117e59061454d565b60405180910390fd5b6117fa8484848461277e565b50505050565b60606000825167ffffffffffffffff81111561181f5761181e613b7a565b5b60405190808252806020026020018201604052801561185257816020015b606081526020019060019003908161183d5790505b50905060005b83518110156118b5576118848482815181106118775761187661427f565b5b60200260200101516118bf565b8282815181106118975761189661427f565b5b602002602001018190525080806118ad906142dd565b915050611858565b8192505050919050565b60606118ca826127da565b9050919050565b60006014600083815260200190815260200160002060009054906101000a900473ffffffffffffffffffffffffffffffffffffffff169050919050565b600080600f60009054906101000a900473ffffffffffffffffffffffffffffffffffffffff16905060008173ffffffffffffffffffffffffffffffffffffffff166370a08231856040518263ffffffff1660e01b815260040161197191906139dc565b602060405180830381865afa15801561198e573d6000803e3d6000fd5b505050506040513d601f19601f820116820180604052508101906119b29190614836565b90508092505050919050565b60006119ca600c61292b565b90506119d6600c612939565b6119e0838261294f565b6119ea818361296d565b505050565b600d5481565b6000601360008373ffffffffffffffffffffffffffffffffffffffff1673ffffffffffffffffffffffffffffffffffffffff16815260200190815260200160002060009054906101000a900460ff168015611aa0575060001515601260008473ffffffffffffffffffffffffffffffffffffffff1673ffffffffffffffffffffffffffffffffffffffff16815260200190815260200160002060009054906101000a900460ff161515145b15611aae5760019050611ab3565b600090505b919050565b60136020528060005260406000206000915054906101000a900460ff1681565b601360008373ffffffffffffffffffffffffffffffffffffffff1673ffffffffffffffffffffffffffffffffffffffff16815260200190815260200160002060009054906101000a900460ff168015611b81575060001515601260008473ffffffffffffffffffffffffffffffffffffffff1673ffffffffffffffffffffffffffffffffffffffff16815260200190815260200160002060009054906101000a900460ff161515145b15611bed57611b9082826119be565b6001601260008473ffffffffffffffffffffffffffffffffffffffff1673ffffffffffffffffffffffffffffffffffffffff16815260200190815260200160002060006101000a81548160ff021916908315150217905550611bf2565b600080fd5b5050565b611bfe611ff6565b73ffffffffffffffffffffffffffffffffffffffff16611c1c6116cc565b73ffffffffffffffffffffffffffffffffffffffff1614611c72576040517f08c379a0000000000000000000000000000000000000000000000000000000008152600401611c699061464b565b60405180910390fd5b6001601360008373ffffffffffffffffffffffffffffffffffffffff1673ffffffffffffffffffffffffffffffffffffffff16815260200190815260200160002060006101000a81548160ff02191690831515021790555050565b6000600560008473ffffffffffffffffffffffffffffffffffffffff1673ffffffffffffffffffffffffffffffffffffffff16815260200190815260200160002060008373ffffffffffffffffffffffffffffffffffffffff1673ffffffffffffffffffffffffffffffffffffffff16815260200190815260200160002060009054906101000a900460ff16905092915050565b611d69611ff6565b73ffffffffffffffffffffffffffffffffffffffff16611d876116cc565b73ffffffffffffffffffffffffffffffffffffffff1614611ddd576040517f08c379a0000000000000000000000000000000000000000000000000000000008152600401611dd49061464b565b60405180910390fd5b600073ffffffffffffffffffffffffffffffffffffffff168173ffffffffffffffffffffffffffffffffffffffff1603611e4c576040517f08c379a0000000000000000000000000000000000000000000000000000000008152600401611e4390614940565b60405180910390fd5b611e55816124a9565b50565b6000600f60009054906101000a900473ffffffffffffffffffffffffffffffffffffffff1690508073ffffffffffffffffffffffffffffffffffffffff166323b872dd843060016040518463ffffffff1660e01b8152600401611ebd939291906149a5565b6020604051808303816000875af1158015611edc573d6000803e3d6000fd5b505050506040513d601f19601f82011682018060405250810190611f0091906148a1565b50611f0b83836119be565b505050565b60007f780e9d63000000000000000000000000000000000000000000000000000000007bffffffffffffffffffffffffffffffffffffffffffffffffffffffff1916827bffffffffffffffffffffffffffffffffffffffffffffffffffffffff19161480611f835750611f82826129e1565b5b9050919050565b60008073ffffffffffffffffffffffffffffffffffffffff166002600084815260200190815260200160002060009054906101000a900473ffffffffffffffffffffffffffffffffffffffff1673ffffffffffffffffffffffffffffffffffffffff1614159050919050565b600033905090565b816004600083815260200190815260200160002060006101000a81548173ffffffffffffffffffffffffffffffffffffffff021916908373ffffffffffffffffffffffffffffffffffffffff160217905550808273ffffffffffffffffffffffffffffffffffffffff166120718361125c565b73ffffffffffffffffffffffffffffffffffffffff167f8c5be1e5ebec7d5bd14f71427d1e84f3dd0314c0f7b2291e5b200ac8c7c3b92560405160405180910390a45050565b60006120c282611f8a565b612101576040517f08c379a00000000000000000000000000000000000000000000000000000000081526004016120f890614a4e565b60405180910390fd5b600061210c8361125c565b90508073ffffffffffffffffffffffffffffffffffffffff168473ffffffffffffffffffffffffffffffffffffffff16148061214e575061214d8185611ccd565b5b8061218c57508373ffffffffffffffffffffffffffffffffffffffff1661217484610b15565b73ffffffffffffffffffffffffffffffffffffffff16145b91505092915050565b8273ffffffffffffffffffffffffffffffffffffffff166121b58261125c565b73ffffffffffffffffffffffffffffffffffffffff161461220b576040517f08c379a000000000000000000000000000000000000000000000000000000000815260040161220290614ae0565b60405180910390fd5b600073ffffffffffffffffffffffffffffffffffffffff168273ffffffffffffffffffffffffffffffffffffffff160361227a576040517f08c379a000000000000000000000000000000000000000000000000000000000815260040161227190614b72565b60405180910390fd5b612285838383612ac3565b612290600082611ffe565b6001600360008573ffffffffffffffffffffffffffffffffffffffff1673ffffffffffffffffffffffffffffffffffffffff16815260200190815260200160002060008282546122e09190614b92565b925050819055506001600360008473ffffffffffffffffffffffffffffffffffffffff1673ffffffffffffffffffffffffffffffffffffffff16815260200190815260200160002060008282546123379190614bc6565b92505081905550816002600083815260200190815260200160002060006101000a81548173ffffffffffffffffffffffffffffffffffffffff021916908373ffffffffffffffffffffffffffffffffffffffff160217905550808273ffffffffffffffffffffffffffffffffffffffff168473ffffffffffffffffffffffffffffffffffffffff167fddf252ad1be2c89b69c2b068fc378daa952ba7f163c4a11628f55a4df523b3ef60405160405180910390a46123f6838383612ad3565b505050565b61240361115a565b612442576040517f08c379a000000000000000000000000000000000000000000000000000000000815260040161243990614c68565b60405180910390fd5b6000600760006101000a81548160ff0219169083151502179055507f5db9ee0a495bf2e6ff9c91a7834c1ba4fdd244a5e8aa4e537bd38aeae4b073aa612486611ff6565b60405161249391906139dc565b60405180910390a1565b6124a681612ad8565b50565b6000600760019054906101000a900473ffffffffffffffffffffffffffffffffffffffff16905081600760016101000a81548173ffffffffffffffffffffffffffffffffffffffff021916908373ffffffffffffffffffffffffffffffffffffffff1602179055508173ffffffffffffffffffffffffffffffffffffffff168173ffffffffffffffffffffffffffffffffffffffff167f8be0079c531659141344cd1fd0a4f28419497f9722a3daafe3b4186f6b6457e060405160405180910390a35050565b61257761115a565b156125b7576040517f08c379a00000000000000000000000000000000000000000000000000000000081526004016125ae90614cd4565b60405180910390fd5b6001600760006101000a81548160ff0219169083151502179055507f62e78cea01bee320cd4e420270b5ea74000d11b0c9f74754ebdbfc544b05a2586125fb611ff6565b60405161260891906139dc565b60405180910390a1565b8173ffffffffffffffffffffffffffffffffffffffff168373ffffffffffffffffffffffffffffffffffffffff1603612680576040517f08c379a000000000000000000000000000000000000000000000000000000000815260040161267790614d40565b60405180910390fd5b80600560008573ffffffffffffffffffffffffffffffffffffffff1673ffffffffffffffffffffffffffffffffffffffff16815260200190815260200160002060008473ffffffffffffffffffffffffffffffffffffffff1673ffffffffffffffffffffffffffffffffffffffff16815260200190815260200160002060006101000a81548160ff0219169083151502179055508173ffffffffffffffffffffffffffffffffffffffff168373ffffffffffffffffffffffffffffffffffffffff167f17307eab39ab6107e8899845ad3d59bd9653f200f220920489ca2b5937696c31836040516127719190613862565b60405180910390a3505050565b612789848484612195565b61279584848484612b2b565b6127d4576040517f08c379a00000000000000000000000000000000000000000000000000000000081526004016127cb90614dd2565b60405180910390fd5b50505050565b60606127e582611f8a565b612824576040517f08c379a000000000000000000000000000000000000000000000000000000000815260040161281b90614e64565b60405180910390fd5b6000600660008481526020019081526020016000208054612844906141bc565b80601f0160208091040260200160405190810160405280929190818152602001828054612870906141bc565b80156128bd5780601f10612892576101008083540402835291602001916128bd565b820191906000526020600020905b8154815290600101906020018083116128a057829003601f168201915b5050505050905060006128ce612cb2565b905060008151036128e3578192505050612926565b600082511115612918578082604051602001612900929190614ec0565b60405160208183030381529060405292505050612926565b61292184612cc9565b925050505b919050565b600081600001549050919050565b6001816000016000828254019250508190555050565b612969828260405180602001604052806000815250612d70565b5050565b61297682611f8a565b6129b5576040517f08c379a00000000000000000000000000000000000000000000000000000000081526004016129ac90614f56565b60405180910390fd5b806006600084815260200190815260200160002090805190602001906129dc9291906136cb565b505050565b60007f80ac58cd000000000000000000000000000000000000000000000000000000007bffffffffffffffffffffffffffffffffffffffffffffffffffffffff1916827bffffffffffffffffffffffffffffffffffffffffffffffffffffffff19161480612aac57507f5b5e139f000000000000000000000000000000000000000000000000000000007bffffffffffffffffffffffffffffffffffffffffffffffffffffffff1916827bffffffffffffffffffffffffffffffffffffffffffffffffffffffff1916145b80612abc5750612abb82612dcb565b5b9050919050565b612ace838383612e35565b505050565b505050565b612ae181612f47565b6000600660008381526020019081526020016000208054612b01906141bc565b905014612b2857600660008281526020019081526020016000206000612b279190613751565b5b50565b6000612b4c8473ffffffffffffffffffffffffffffffffffffffff16613064565b15612ca5578373ffffffffffffffffffffffffffffffffffffffff1663150b7a02612b75611ff6565b8786866040518563ffffffff1660e01b8152600401612b979493929190614fcb565b6020604051808303816000875af1925050508015612bd357506040513d601f19601f82011682018060405250810190612bd0919061502c565b60015b612c55573d8060008114612c03576040519150601f19603f3d011682016040523d82523d6000602084013e612c08565b606091505b506000815103612c4d576040517f08c379a0000000000000000000000000000000000000000000000000000000008152600401612c4490614dd2565b60405180910390fd5b805181602001fd5b63150b7a0260e01b7bffffffffffffffffffffffffffffffffffffffffffffffffffffffff1916817bffffffffffffffffffffffffffffffffffffffffffffffffffffffff191614915050612caa565b600190505b949350505050565b606060405180602001604052806000815250905090565b6060612cd482611f8a565b612d13576040517f08c379a0000000000000000000000000000000000000000000000000000000008152600401612d0a906150cb565b60405180910390fd5b6000612d1d612cb2565b90506000815111612d3d5760405180602001604052806000815250612d68565b80612d4784613087565b604051602001612d58929190614ec0565b6040516020818303038152906040525b915050919050565b612d7a83836131e7565b612d876000848484612b2b565b612dc6576040517f08c379a0000000000000000000000000000000000000000000000000000000008152600401612dbd90614dd2565b60405180910390fd5b505050565b60007f01ffc9a7000000000000000000000000000000000000000000000000000000007bffffffffffffffffffffffffffffffffffffffffffffffffffffffff1916827bffffffffffffffffffffffffffffffffffffffffffffffffffffffff1916149050919050565b612e408383836133c0565b600073ffffffffffffffffffffffffffffffffffffffff168373ffffffffffffffffffffffffffffffffffffffff1603612e8257612e7d816133c5565b612ec1565b8173ffffffffffffffffffffffffffffffffffffffff168373ffffffffffffffffffffffffffffffffffffffff1614612ec057612ebf838261340e565b5b5b600073ffffffffffffffffffffffffffffffffffffffff168273ffffffffffffffffffffffffffffffffffffffff1603612f0357612efe8161357b565b612f42565b8273ffffffffffffffffffffffffffffffffffffffff168273ffffffffffffffffffffffffffffffffffffffff1614612f4157612f40828261364c565b5b5b505050565b6000612f528261125c565b9050612f6081600084612ac3565b612f6b600083611ffe565b6001600360008373ffffffffffffffffffffffffffffffffffffffff1673ffffffffffffffffffffffffffffffffffffffff1681526020019081526020016000206000828254612fbb9190614b92565b925050819055506002600083815260200190815260200160002060006101000a81549073ffffffffffffffffffffffffffffffffffffffff021916905581600073ffffffffffffffffffffffffffffffffffffffff168273ffffffffffffffffffffffffffffffffffffffff167fddf252ad1be2c89b69c2b068fc378daa952ba7f163c4a11628f55a4df523b3ef60405160405180910390a461306081600084612ad3565b5050565b6000808273ffffffffffffffffffffffffffffffffffffffff163b119050919050565b6060600082036130ce576040518060400160405280600181526020017f300000000000000000000000000000000000000000000000000000000000000081525090506131e2565b600082905060005b600082146131005780806130e9906142dd565b915050600a826130f9919061511a565b91506130d6565b60008167ffffffffffffffff81111561311c5761311b613b7a565b5b6040519080825280601f01601f19166020018201604052801561314e5781602001600182028036833780820191505090505b5090505b600085146131db576001826131679190614b92565b9150600a85613176919061514b565b60306131829190614bc6565b60f81b8183815181106131985761319761427f565b5b60200101907effffffffffffffffffffffffffffffffffffffffffffffffffffffffffffff1916908160001a905350600a856131d4919061511a565b9450613152565b8093505050505b919050565b600073ffffffffffffffffffffffffffffffffffffffff168273ffffffffffffffffffffffffffffffffffffffff1603613256576040517f08c379a000000000000000000000000000000000000000000000000000000000815260040161324d906151c8565b60405180910390fd5b61325f81611f8a565b1561329f576040517f08c379a000000000000000000000000000000000000000000000000000000000815260040161329690615234565b60405180910390fd5b6132ab60008383612ac3565b6001600360008473ffffffffffffffffffffffffffffffffffffffff1673ffffffffffffffffffffffffffffffffffffffff16815260200190815260200160002060008282546132fb9190614bc6565b92505081905550816002600083815260200190815260200160002060006101000a81548173ffffffffffffffffffffffffffffffffffffffff021916908373ffffffffffffffffffffffffffffffffffffffff160217905550808273ffffffffffffffffffffffffffffffffffffffff16600073ffffffffffffffffffffffffffffffffffffffff167fddf252ad1be2c89b69c2b068fc378daa952ba7f163c4a11628f55a4df523b3ef60405160405180910390a46133bc60008383612ad3565b5050565b505050565b600a80549050600b600083815260200190815260200160002081905550600a81908060018154018082558091505060019003906000526020600020016000909190919091505550565b6000600161341b84611363565b6134259190614b92565b905060006009600084815260200190815260200160002054905081811461350a576000600860008673ffffffffffffffffffffffffffffffffffffffff1673ffffffffffffffffffffffffffffffffffffffff168152602001908152602001600020600084815260200190815260200160002054905080600860008773ffffffffffffffffffffffffffffffffffffffff1673ffffffffffffffffffffffffffffffffffffffff168152602001908152602001600020600084815260200190815260200160002081905550816009600083815260200190815260200160002081905550505b6009600084815260200190815260200160002060009055600860008573ffffffffffffffffffffffffffffffffffffffff1673ffffffffffffffffffffffffffffffffffffffff16815260200190815260200160002060008381526020019081526020016000206000905550505050565b60006001600a8054905061358f9190614b92565b90506000600b60008481526020019081526020016000205490506000600a83815481106135bf576135be61427f565b5b9060005260206000200154905080600a83815481106135e1576135e061427f565b5b906000526020600020018190555081600b600083815260200190815260200160002081905550600b600085815260200190815260200160002060009055600a8054806136305761362f615254565b5b6001900381819060005260206000200160009055905550505050565b600061365783611363565b905081600860008573ffffffffffffffffffffffffffffffffffffffff1673ffffffffffffffffffffffffffffffffffffffff168152602001908152602001600020600083815260200190815260200160002081905550806009600084815260200190815260200160002081905550505050565b8280546136d7906141bc565b90600052602060002090601f0160209004810192826136f95760008555613740565b82601f1061371257805160ff1916838001178555613740565b82800160010185558215613740579182015b8281111561373f578251825591602001919060010190613724565b5b50905061374d9190613791565b5090565b50805461375d906141bc565b6000825580601f1061376f575061378e565b601f01602090049060005260206000209081019061378d9190613791565b5b50565b5b808211156137aa576000816000905550600101613792565b5090565b6000604051905090565b600080fd5b600080fd5b60007fffffffff0000000000000000000000000000000000000000000000000000000082169050919050565b6137f7816137c2565b811461380257600080fd5b50565b600081359050613814816137ee565b92915050565b6000602082840312156138305761382f6137b8565b5b600061383e84828501613805565b91505092915050565b60008115159050919050565b61385c81613847565b82525050565b60006020820190506138776000830184613853565b92915050565b600081519050919050565b600082825260208201905092915050565b60005b838110156138b757808201518184015260208101905061389c565b838111156138c6576000848401525b50505050565b6000601f19601f8301169050919050565b60006138e88261387d565b6138f28185613888565b9350613902818560208601613899565b61390b816138cc565b840191505092915050565b6000602082019050818103600083015261393081846138dd565b905092915050565b6000819050919050565b61394b81613938565b811461395657600080fd5b50565b60008135905061396881613942565b92915050565b600060208284031215613984576139836137b8565b5b600061399284828501613959565b91505092915050565b600073ffffffffffffffffffffffffffffffffffffffff82169050919050565b60006139c68261399b565b9050919050565b6139d6816139bb565b82525050565b60006020820190506139f160008301846139cd565b92915050565b613a00816139bb565b8114613a0b57600080fd5b50565b600081359050613a1d816139f7565b92915050565b600060208284031215613a3957613a386137b8565b5b6000613a4784828501613a0e565b91505092915050565b600081519050919050565b600082825260208201905092915050565b6000819050602082019050919050565b613a8581613938565b82525050565b6000613a978383613a7c565b60208301905092915050565b6000602082019050919050565b6000613abb82613a50565b613ac58185613a5b565b9350613ad083613a6c565b8060005b83811015613b01578151613ae88882613a8b565b9750613af383613aa3565b925050600181019050613ad4565b5085935050505092915050565b60006020820190508181036000830152613b288184613ab0565b905092915050565b60008060408385031215613b4757613b466137b8565b5b6000613b5585828601613a0e565b9250506020613b6685828601613959565b9150509250929050565b600080fd5b600080fd5b7f4e487b7100000000000000000000000000000000000000000000000000000000600052604160045260246000fd5b613bb2826138cc565b810181811067ffffffffffffffff82111715613bd157613bd0613b7a565b5b80604052505050565b6000613be46137ae565b9050613bf08282613ba9565b919050565b600067ffffffffffffffff821115613c1057613c0f613b7a565b5b613c19826138cc565b9050602081019050919050565b82818337600083830152505050565b6000613c48613c4384613bf5565b613bda565b905082815260208101848484011115613c6457613c63613b75565b5b613c6f848285613c26565b509392505050565b600082601f830112613c8c57613c8b613b70565b5b8135613c9c848260208601613c35565b91505092915050565b60008060408385031215613cbc57613cbb6137b8565b5b6000613cca85828601613a0e565b925050602083013567ffffffffffffffff811115613ceb57613cea6137bd565b5b613cf785828601613c77565b9150509250929050565b613d0a81613938565b82525050565b6000602082019050613d256000830184613d01565b92915050565b600080600060608486031215613d4457613d436137b8565b5b6000613d5286828701613a0e565b9350506020613d6386828701613a0e565b9250506040613d7486828701613959565b9150509250925092565b613d8781613847565b8114613d9257600080fd5b50565b600081359050613da481613d7e565b92915050565b60008060408385031215613dc157613dc06137b8565b5b6000613dcf85828601613a0e565b9250506020613de085828601613d95565b9150509250929050565b600067ffffffffffffffff821115613e0557613e04613b7a565b5b613e0e826138cc565b9050602081019050919050565b6000613e2e613e2984613dea565b613bda565b905082815260208101848484011115613e4a57613e49613b75565b5b613e55848285613c26565b509392505050565b600082601f830112613e7257613e71613b70565b5b8135613e82848260208601613e1b565b91505092915050565b60008060008060808587031215613ea557613ea46137b8565b5b6000613eb387828801613a0e565b9450506020613ec487828801613a0e565b9350506040613ed587828801613959565b925050606085013567ffffffffffffffff811115613ef657613ef56137bd565b5b613f0287828801613e5d565b91505092959194509250565b600067ffffffffffffffff821115613f2957613f28613b7a565b5b602082029050602081019050919050565b600080fd5b6000613f52613f4d84613f0e565b613bda565b90508083825260208201905060208402830185811115613f7557613f74613f3a565b5b835b81811015613f9e5780613f8a8882613959565b845260208401935050602081019050613f77565b5050509392505050565b600082601f830112613fbd57613fbc613b70565b5b8135613fcd848260208601613f3f565b91505092915050565b600060208284031215613fec57613feb6137b8565b5b600082013567ffffffffffffffff81111561400a576140096137bd565b5b61401684828501613fa8565b91505092915050565b600081519050919050565b600082825260208201905092915050565b6000819050602082019050919050565b600082825260208201905092915050565b60006140678261387d565b614071818561404b565b9350614081818560208601613899565b61408a816138cc565b840191505092915050565b60006140a1838361405c565b905092915050565b6000602082019050919050565b60006140c18261401f565b6140cb818561402a565b9350836020820285016140dd8561403b565b8060005b8581101561411957848403895281516140fa8582614095565b9450614105836140a9565b925060208a019950506001810190506140e1565b50829750879550505050505092915050565b6000602082019050818103600083015261414581846140b6565b905092915050565b60008060408385031215614164576141636137b8565b5b600061417285828601613a0e565b925050602061418385828601613a0e565b9150509250929050565b7f4e487b7100000000000000000000000000000000000000000000000000000000600052602260045260246000fd5b600060028204905060018216806141d457607f821691505b6020821081036141e7576141e661418d565b5b50919050565b7f4552433732313a20617070726f76656420717565727920666f72206e6f6e657860008201527f697374656e7420746f6b656e0000000000000000000000000000000000000000602082015250565b6000614249602c83613888565b9150614254826141ed565b604082019050919050565b600060208201905081810360008301526142788161423c565b9050919050565b7f4e487b7100000000000000000000000000000000000000000000000000000000600052603260045260246000fd5b7f4e487b7100000000000000000000000000000000000000000000000000000000600052601160045260246000fd5b60006142e882613938565b91507fffffffffffffffffffffffffffffffffffffffffffffffffffffffffffffffff820361431a576143196142ae565b5b600182019050919050565b7f4552433732313a20617070726f76616c20746f2063757272656e74206f776e6560008201527f7200000000000000000000000000000000000000000000000000000000000000602082015250565b6000614381602183613888565b915061438c82614325565b604082019050919050565b600060208201905081810360008301526143b081614374565b9050919050565b7f4552433732313a20617070726f76652063616c6c6572206973206e6f74206f7760008201527f6e6572206e6f7220617070726f76656420666f7220616c6c0000000000000000602082015250565b6000614413603883613888565b915061441e826143b7565b604082019050919050565b6000602082019050818103600083015261444281614406565b9050919050565b7f536f7272792c20796f7520646f206e6f74206f776e20656e6f7567682062616c60008201527f616e6365203a2800000000000000000000000000000000000000000000000000602082015250565b60006144a5602783613888565b91506144b082614449565b604082019050919050565b600060208201905081810360008301526144d481614498565b9050919050565b7f4552433732313a207472616e736665722063616c6c6572206973206e6f74206f60008201527f776e6572206e6f7220617070726f766564000000000000000000000000000000602082015250565b6000614537603183613888565b9150614542826144db565b604082019050919050565b600060208201905081810360008301526145668161452a565b9050919050565b7f455243373231456e756d657261626c653a206f776e657220696e646578206f7560008201527f74206f6620626f756e6473000000000000000000000000000000000000000000602082015250565b60006145c9602b83613888565b91506145d48261456d565b604082019050919050565b600060208201905081810360008301526145f8816145bc565b9050919050565b7f4f776e61626c653a2063616c6c6572206973206e6f7420746865206f776e6572600082015250565b6000614635602083613888565b9150614640826145ff565b602082019050919050565b6000602082019050818103600083015261466481614628565b9050919050565b7f455243373231456e756d657261626c653a20676c6f62616c20696e646578206f60008201527f7574206f6620626f756e64730000000000000000000000000000000000000000602082015250565b60006146c7602c83613888565b91506146d28261466b565b604082019050919050565b600060208201905081810360008301526146f6816146ba565b9050919050565b7f4552433732313a206f776e657220717565727920666f72206e6f6e657869737460008201527f656e7420746f6b656e0000000000000000000000000000000000000000000000602082015250565b6000614759602983613888565b9150614764826146fd565b604082019050919050565b600060208201905081810360008301526147888161474c565b9050919050565b7f4552433732313a2062616c616e636520717565727920666f7220746865207a6560008201527f726f206164647265737300000000000000000000000000000000000000000000602082015250565b60006147eb602a83613888565b91506147f68261478f565b604082019050919050565b6000602082019050818103600083015261481a816147de565b9050919050565b60008151905061483081613942565b92915050565b60006020828403121561484c5761484b6137b8565b5b600061485a84828501614821565b91505092915050565b600060408201905061487860008301856139cd565b6148856020830184613d01565b9392505050565b60008151905061489b81613d7e565b92915050565b6000602082840312156148b7576148b66137b8565b5b60006148c58482850161488c565b91505092915050565b7f4f776e61626c653a206e6577206f776e657220697320746865207a65726f206160008201527f6464726573730000000000000000000000000000000000000000000000000000602082015250565b600061492a602683613888565b9150614935826148ce565b604082019050919050565b600060208201905081810360008301526149598161491d565b9050919050565b6000819050919050565b6000819050919050565b600061498f61498a61498584614960565b61496a565b613938565b9050919050565b61499f81614974565b82525050565b60006060820190506149ba60008301866139cd565b6149c760208301856139cd565b6149d46040830184614996565b949350505050565b7f4552433732313a206f70657261746f7220717565727920666f72206e6f6e657860008201527f697374656e7420746f6b656e0000000000000000000000000000000000000000602082015250565b6000614a38602c83613888565b9150614a43826149dc565b604082019050919050565b60006020820190508181036000830152614a6781614a2b565b9050919050565b7f4552433732313a207472616e736665722066726f6d20696e636f72726563742060008201527f6f776e6572000000000000000000000000000000000000000000000000000000602082015250565b6000614aca602583613888565b9150614ad582614a6e565b604082019050919050565b60006020820190508181036000830152614af981614abd565b9050919050565b7f4552433732313a207472616e7366657220746f20746865207a65726f2061646460008201527f7265737300000000000000000000000000000000000000000000000000000000602082015250565b6000614b5c602483613888565b9150614b6782614b00565b604082019050919050565b60006020820190508181036000830152614b8b81614b4f565b9050919050565b6000614b9d82613938565b9150614ba883613938565b925082821015614bbb57614bba6142ae565b5b828203905092915050565b6000614bd182613938565b9150614bdc83613938565b9250827fffffffffffffffffffffffffffffffffffffffffffffffffffffffffffffffff03821115614c1157614c106142ae565b5b828201905092915050565b7f5061757361626c653a206e6f7420706175736564000000000000000000000000600082015250565b6000614c52601483613888565b9150614c5d82614c1c565b602082019050919050565b60006020820190508181036000830152614c8181614c45565b9050919050565b7f5061757361626c653a2070617573656400000000000000000000000000000000600082015250565b6000614cbe601083613888565b9150614cc982614c88565b602082019050919050565b60006020820190508181036000830152614ced81614cb1565b9050919050565b7f4552433732313a20617070726f766520746f2063616c6c657200000000000000600082015250565b6000614d2a601983613888565b9150614d3582614cf4565b602082019050919050565b60006020820190508181036000830152614d5981614d1d565b9050919050565b7f4552433732313a207472616e7366657220746f206e6f6e20455243373231526560008201527f63656976657220696d706c656d656e7465720000000000000000000000000000602082015250565b6000614dbc603283613888565b9150614dc782614d60565b604082019050919050565b60006020820190508181036000830152614deb81614daf565b9050919050565b7f45524337323155524953746f726167653a2055524920717565727920666f722060008201527f6e6f6e6578697374656e7420746f6b656e000000000000000000000000000000602082015250565b6000614e4e603183613888565b9150614e5982614df2565b604082019050919050565b60006020820190508181036000830152614e7d81614e41565b9050919050565b600081905092915050565b6000614e9a8261387d565b614ea48185614e84565b9350614eb4818560208601613899565b80840191505092915050565b6000614ecc8285614e8f565b9150614ed88284614e8f565b91508190509392505050565b7f45524337323155524953746f726167653a2055524920736574206f66206e6f6e60008201527f6578697374656e7420746f6b656e000000000000000000000000000000000000602082015250565b6000614f40602e83613888565b9150614f4b82614ee4565b604082019050919050565b60006020820190508181036000830152614f6f81614f33565b9050919050565b600081519050919050565b600082825260208201905092915050565b6000614f9d82614f76565b614fa78185614f81565b9350614fb7818560208601613899565b614fc0816138cc565b840191505092915050565b6000608082019050614fe060008301876139cd565b614fed60208301866139cd565b614ffa6040830185613d01565b818103606083015261500c8184614f92565b905095945050505050565b600081519050615026816137ee565b92915050565b600060208284031215615042576150416137b8565b5b600061505084828501615017565b91505092915050565b7f4552433732314d657461646174613a2055524920717565727920666f72206e6f60008201527f6e6578697374656e7420746f6b656e0000000000000000000000000000000000602082015250565b60006150b5602f83613888565b91506150c082615059565b604082019050919050565b600060208201905081810360008301526150e4816150a8565b9050919050565b7f4e487b7100000000000000000000000000000000000000000000000000000000600052601260045260246000fd5b600061512582613938565b915061513083613938565b9250826151405761513f6150eb565b5b828204905092915050565b600061515682613938565b915061516183613938565b925082615171576151706150eb565b5b828206905092915050565b7f4552433732313a206d696e7420746f20746865207a65726f2061646472657373600082015250565b60006151b2602083613888565b91506151bd8261517c565b602082019050919050565b600060208201905081810360008301526151e1816151a5565b9050919050565b7f4552433732313a20746f6b656e20616c7265616479206d696e74656400000000600082015250565b600061521e601c83613888565b9150615229826151e8565b602082019050919050565b6000602082019050818103600083015261524d81615211565b9050919050565b7f4e487b7100000000000000000000000000000000000000000000000000000000600052603160045260246000fdfea26469706673582212200444786d56085cfdde076b34cb3041e78b89380f88a2b37d5dff890ff8d233e364736f6c634300080d0033",
  "immutableReferences": {},
  "source": "// SPDX-License-Identifier: MIT\npragma solidity ^0.8.4;\n\nimport \"@openzeppelin/contracts/token/ERC721/ERC721.sol\";\nimport \"@openzeppelin/contracts/token/ERC721/extensions/ERC721URIStorage.sol\";\nimport \"@openzeppelin/contracts/security/Pausable.sol\";\nimport \"@openzeppelin/contracts/access/Ownable.sol\";\nimport \"@openzeppelin/contracts/utils/Counters.sol\";\nimport \"@openzeppelin/contracts/token/ERC721/extensions/ERC721Burnable.sol\";\nimport \"@openzeppelin/contracts/token/ERC721/extensions/ERC721Enumerable.sol\";\nimport \"./RocketToken.sol\";\n\ncontract RocketNFT is ERC721, ERC721URIStorage, Pausable, Ownable, ERC721Enumerable,  ERC721Burnable {\n    \n    // TOKEN ID AUTO-INCREMENT\n    using Counters for Counters.Counter;\n    Counters.Counter private _tokenIdCounter;\n\n    // PROPERTIES\n    uint public rocketPrice;\n    uint public maticPrice;\n    address public ROCKETTOKENADDRESS;\n    mapping(address => uint) rocketBalance; \n    mapping(address => uint) maticBalance; \n    mapping(address => bool) public freeMintUsed;\n    mapping(address => bool) public whitelisted;\n    mapping(uint256 => address) internal allowance;\n\n    // CONSTRUCTOR\n    constructor() ERC721('RocketNFT', 'RE') {\n        rocketPrice = 1;\n        maticPrice = 100000000000000000 wei; // 0.1 MATIC\n        whitelisted[0xEc206446346bF108E31cb79d28E93070dCc99FB8] = true;\n        whitelisted[0xdB1024d778CE348eff7FaeD22CCC270e4AF5Dedd] = true;\n        whitelisted[0xd1679bB3543e8aD195FF9f3Ac3436039bA389237] = true;\n        whitelisted[0xF4F555ca1586C40067cd215578f123d30813De02] = true;\n        whitelisted[0x5563D3361408D41BF172E3720C30b0e35F19A444] = true;\n        whitelisted[0x6ffdAf0795D208c11C583C88Cb5dbd2A8955A59e] = true;\n\n        // LOCAL ACC\n        whitelisted[0xFB4736eADE1a08c42E65aa187dd32C36E160AAcc] = true;\n        whitelisted[0x4B507F8f6a7b1650E926483f2b0dcb6FaEc9fcB1] = true;\n    }\n\n    // TRANSACTIONS\n    function mintForFree(address requester, string memory ipfs) public{\n        if(whitelisted[requester] && freeMintUsed[requester] == false){\n            safeMint(requester, ipfs);\n            freeMintUsed[requester] = true;\n        }else{\n            revert();\n        }\n    }\n\n    function mintWithMatic(address requester, string memory ipfs) public payable{\n        require(msg.value >= maticPrice, \"Sorry, you do not own enough balance :(\");\n        safeMint(requester, ipfs);\n    }\n\n    function mintWithRocket(address requester, string memory ipfs) public payable{\n        ERC20 RT = ERC20(ROCKETTOKENADDRESS);\n        RT.transferFrom(requester, address(this), 1);\n        safeMint(requester, ipfs);\n        // uint256 balance = RT.balanceOf(requester);\n        // require(balance >= 1, \">> Sorry, you do not own enough balance :(\");\n    }\n\n    function checkRocketBalance(address requester) external view returns(uint256){\n        ERC20 RT = ERC20(ROCKETTOKENADDRESS);\n        uint256 balance = RT.balanceOf(requester);\n        return balance;\n    }\n    \n    //Withdraw MATIC\n    function withdrawWithMatic() public payable onlyOwner{\n        payable(msg.sender).transfer(address(this).balance);\n    }\n    //Withdraw ROCKET\n    function withdrawWithRocket() public onlyOwner {\n        ERC20 RT = ERC20(ROCKETTOKENADDRESS);\n        uint balance = RT.balanceOf(address(this));\n        RT.transfer(msg.sender, balance);\n    }\n    // SET ROCKETTOKENADDRESS\n    function setRocketTokenAddress(address rocketTokenAddress) public onlyOwner returns (address){\n        return ROCKETTOKENADDRESS = rocketTokenAddress;\n    }\n    function confirmRocketTokenAddress() external view returns (address){\n        return ROCKETTOKENADDRESS;\n    }\n    // TODO: Allowance\n    function getAllowance(uint256 tokenId) external view returns (address){\n        return allowance[tokenId];\n    }\n\n\n    // UTILITY FUNCTIONS\n    function isWhitelisted(address requester) public view returns(bool){\n        return whitelisted[requester];\n    }\n    function checkFreeMintUsage(address requester) external view returns(bool){\n        return freeMintUsed[requester];\n    }\n    function getTokenURIs(uint[] memory tokenIds) public view returns (string[] memory){\n        string[] memory ipfsURIs = new string[](tokenIds.length);\n        uint i;\n        for(i = 0; i < tokenIds.length; i++){\n            ipfsURIs[i] = tokenURI(tokenIds[i]);\n        }\n        return ipfsURIs;\n    }\n    function isEligibleForFreeNFT(address requester) public view returns(bool){\n       if(whitelisted[requester] && freeMintUsed[requester] == false){\n           return true;\n       } else {\n           return false;\n       }\n    }\n    function getTokenIdsOfOwner(address owner) public view returns (uint[] memory) {\n        uint[] memory tokensOfOwner = new uint[](ERC721.balanceOf(owner));\n        uint bal = ERC721.balanceOf(owner);\n        uint i;\n        for(i = 0; i < bal; i++){\n            tokensOfOwner[i] = ERC721Enumerable.tokenOfOwnerByIndex(owner, i);\n        }\n       return tokensOfOwner;\n    }\n    function addToWhitelist(address receiver) public onlyOwner {\n        whitelisted[receiver] = true;\n    }\n\n    // BASE FUNCTIONS\n    function safeMint(address to, string memory ipfsURI) public {\n        uint256 tokenId = _tokenIdCounter.current();\n        _tokenIdCounter.increment();\n        _safeMint(to, tokenId);\n        _setTokenURI(tokenId, ipfsURI);\n    }\n    function pause() public onlyOwner {\n        _pause();\n    }\n    function unpause() public onlyOwner {\n        _unpause();\n    }\n    function burn(uint256 tokenId) public override{\n        _burn(tokenId);\n    }\n    function _burn(uint256 tokenId) internal override(ERC721, ERC721URIStorage) {\n        super._burn(tokenId);\n    }\n    function tokenURI(uint256 tokenId) public view override(ERC721, ERC721URIStorage)\n    returns (string memory){\n        return super.tokenURI(tokenId);\n    }\n    function _beforeTokenTransfer(address from, address to, uint256 tokenId)\n        internal\n        override(ERC721, ERC721Enumerable){\n        super._beforeTokenTransfer(from, to, tokenId);\n    }\n    function supportsInterface(bytes4 interfaceId)\n        public\n        view\n        override(ERC721, ERC721Enumerable)\n        returns (bool){\n        return super.supportsInterface(interfaceId);\n    }\n\n}\n",
  "sourcePath": "/Users/Ironlithium/Desktop/Rocket_Elevators_Blockchain/contracts/RocketNFT.sol",
  "compiler": {
    "name": "solc",
    "version": "0.8.13+commit.abaa5c0e.Emscripten.clang"
  },
  "schemaVersion": "3.4.6",
  "updatedAt": "2022-05-07T21:41:50.348Z",
  "networkType": "ethereum",
  "devdoc": {
    "kind": "dev",
    "methods": {
      "approve(address,uint256)": {
        "details": "See {IERC721-approve}."
      },
      "balanceOf(address)": {
        "details": "See {IERC721-balanceOf}."
      },
      "burn(uint256)": {
        "details": "Burns `tokenId`. See {ERC721-_burn}. Requirements: - The caller must own `tokenId` or be an approved operator."
      },
      "getApproved(uint256)": {
        "details": "See {IERC721-getApproved}."
      },
      "isApprovedForAll(address,address)": {
        "details": "See {IERC721-isApprovedForAll}."
      },
      "name()": {
        "details": "See {IERC721Metadata-name}."
      },
      "owner()": {
        "details": "Returns the address of the current owner."
      },
      "ownerOf(uint256)": {
        "details": "See {IERC721-ownerOf}."
      },
      "paused()": {
        "details": "Returns true if the contract is paused, and false otherwise."
      },
      "renounceOwnership()": {
        "details": "Leaves the contract without owner. It will not be possible to call `onlyOwner` functions anymore. Can only be called by the current owner. NOTE: Renouncing ownership will leave the contract without an owner, thereby removing any functionality that is only available to the owner."
      },
      "safeTransferFrom(address,address,uint256)": {
        "details": "See {IERC721-safeTransferFrom}."
      },
      "safeTransferFrom(address,address,uint256,bytes)": {
        "details": "See {IERC721-safeTransferFrom}."
      },
      "setApprovalForAll(address,bool)": {
        "details": "See {IERC721-setApprovalForAll}."
      },
      "symbol()": {
        "details": "See {IERC721Metadata-symbol}."
      },
      "tokenByIndex(uint256)": {
        "details": "See {IERC721Enumerable-tokenByIndex}."
      },
      "tokenOfOwnerByIndex(address,uint256)": {
        "details": "See {IERC721Enumerable-tokenOfOwnerByIndex}."
      },
      "totalSupply()": {
        "details": "See {IERC721Enumerable-totalSupply}."
      },
      "transferFrom(address,address,uint256)": {
        "details": "See {IERC721-transferFrom}."
      },
      "transferOwnership(address)": {
        "details": "Transfers ownership of the contract to a new account (`newOwner`). Can only be called by the current owner."
      }
    },
    "version": 1
  },
  "userdoc": {
    "kind": "user",
    "methods": {},
    "version": 1
  }
}