{
  "contractName": "RocketToken",
  "abi": [
    {
      "inputs": [],
      "stateMutability": "nonpayable",
      "type": "constructor"
    },
    {
      "anonymous": false,
      "inputs": [
        {
          "indexed": true,
          "internalType": "address",
          "name": "owner",
          "type": "address"
        },
        {
          "indexed": true,
          "internalType": "address",
          "name": "spender",
          "type": "address"
        },
        {
          "indexed": false,
          "internalType": "uint256",
          "name": "value",
          "type": "uint256"
        }
      ],
      "name": "Approval",
      "type": "event"
    },
    {
      "anonymous": false,
      "inputs": [
        {
          "indexed": true,
          "internalType": "address",
          "name": "previousOwner",
          "type": "address"
        },
        {
          "indexed": true,
          "internalType": "address",
          "name": "newOwner",
          "type": "address"
        }
      ],
      "name": "OwnershipTransferred",
      "type": "event"
    },
    {
      "anonymous": false,
      "inputs": [
        {
          "indexed": false,
          "internalType": "address",
          "name": "account",
          "type": "address"
        }
      ],
      "name": "Paused",
      "type": "event"
    },
    {
      "anonymous": false,
      "inputs": [
        {
          "indexed": true,
          "internalType": "address",
          "name": "from",
          "type": "address"
        },
        {
          "indexed": true,
          "internalType": "address",
          "name": "to",
          "type": "address"
        },
        {
          "indexed": false,
          "internalType": "uint256",
          "name": "value",
          "type": "uint256"
        }
      ],
      "name": "Transfer",
      "type": "event"
    },
    {
      "anonymous": false,
      "inputs": [
        {
          "indexed": false,
          "internalType": "address",
          "name": "account",
          "type": "address"
        }
      ],
      "name": "Unpaused",
      "type": "event"
    },
    {
      "inputs": [],
      "name": "DOMAIN_SEPARATOR",
      "outputs": [
        {
          "internalType": "bytes32",
          "name": "",
          "type": "bytes32"
        }
      ],
      "stateMutability": "view",
      "type": "function"
    },
    {
      "inputs": [
        {
          "internalType": "address",
          "name": "owner",
          "type": "address"
        },
        {
          "internalType": "address",
          "name": "spender",
          "type": "address"
        }
      ],
      "name": "allowance",
      "outputs": [
        {
          "internalType": "uint256",
          "name": "",
          "type": "uint256"
        }
      ],
      "stateMutability": "view",
      "type": "function"
    },
    {
      "inputs": [
        {
          "internalType": "address",
          "name": "spender",
          "type": "address"
        },
        {
          "internalType": "uint256",
          "name": "amount",
          "type": "uint256"
        }
      ],
      "name": "approve",
      "outputs": [
        {
          "internalType": "bool",
          "name": "",
          "type": "bool"
        }
      ],
      "stateMutability": "nonpayable",
      "type": "function"
    },
    {
      "inputs": [
        {
          "internalType": "address",
          "name": "account",
          "type": "address"
        }
      ],
      "name": "balanceOf",
      "outputs": [
        {
          "internalType": "uint256",
          "name": "",
          "type": "uint256"
        }
      ],
      "stateMutability": "view",
      "type": "function"
    },
    {
      "inputs": [
        {
          "internalType": "address",
          "name": "spender",
          "type": "address"
        },
        {
          "internalType": "uint256",
          "name": "subtractedValue",
          "type": "uint256"
        }
      ],
      "name": "decreaseAllowance",
      "outputs": [
        {
          "internalType": "bool",
          "name": "",
          "type": "bool"
        }
      ],
      "stateMutability": "nonpayable",
      "type": "function"
    },
    {
      "inputs": [
        {
          "internalType": "address",
          "name": "spender",
          "type": "address"
        },
        {
          "internalType": "uint256",
          "name": "addedValue",
          "type": "uint256"
        }
      ],
      "name": "increaseAllowance",
      "outputs": [
        {
          "internalType": "bool",
          "name": "",
          "type": "bool"
        }
      ],
      "stateMutability": "nonpayable",
      "type": "function"
    },
    {
      "inputs": [
        {
          "internalType": "address",
          "name": "",
          "type": "address"
        }
      ],
      "name": "lastFaucetRequest",
      "outputs": [
        {
          "internalType": "uint256",
          "name": "",
          "type": "uint256"
        }
      ],
      "stateMutability": "view",
      "type": "function"
    },
    {
      "inputs": [],
      "name": "name",
      "outputs": [
        {
          "internalType": "string",
          "name": "",
          "type": "string"
        }
      ],
      "stateMutability": "view",
      "type": "function"
    },
    {
      "inputs": [
        {
          "internalType": "address",
          "name": "owner",
          "type": "address"
        }
      ],
      "name": "nonces",
      "outputs": [
        {
          "internalType": "uint256",
          "name": "",
          "type": "uint256"
        }
      ],
      "stateMutability": "view",
      "type": "function"
    },
    {
      "inputs": [],
      "name": "owner",
      "outputs": [
        {
          "internalType": "address",
          "name": "",
          "type": "address"
        }
      ],
      "stateMutability": "view",
      "type": "function"
    },
    {
      "inputs": [],
      "name": "paused",
      "outputs": [
        {
          "internalType": "bool",
          "name": "",
          "type": "bool"
        }
      ],
      "stateMutability": "view",
      "type": "function"
    },
    {
      "inputs": [
        {
          "internalType": "address",
          "name": "owner",
          "type": "address"
        },
        {
          "internalType": "address",
          "name": "spender",
          "type": "address"
        },
        {
          "internalType": "uint256",
          "name": "value",
          "type": "uint256"
        },
        {
          "internalType": "uint256",
          "name": "deadline",
          "type": "uint256"
        },
        {
          "internalType": "uint8",
          "name": "v",
          "type": "uint8"
        },
        {
          "internalType": "bytes32",
          "name": "r",
          "type": "bytes32"
        },
        {
          "internalType": "bytes32",
          "name": "s",
          "type": "bytes32"
        }
      ],
      "name": "permit",
      "outputs": [],
      "stateMutability": "nonpayable",
      "type": "function"
    },
    {
      "inputs": [],
      "name": "renounceOwnership",
      "outputs": [],
      "stateMutability": "nonpayable",
      "type": "function"
    },
    {
      "inputs": [],
      "name": "symbol",
      "outputs": [
        {
          "internalType": "string",
          "name": "",
          "type": "string"
        }
      ],
      "stateMutability": "view",
      "type": "function"
    },
    {
      "inputs": [],
      "name": "totalSupply",
      "outputs": [
        {
          "internalType": "uint256",
          "name": "",
          "type": "uint256"
        }
      ],
      "stateMutability": "view",
      "type": "function"
    },
    {
      "inputs": [
        {
          "internalType": "address",
          "name": "to",
          "type": "address"
        },
        {
          "internalType": "uint256",
          "name": "amount",
          "type": "uint256"
        }
      ],
      "name": "transfer",
      "outputs": [
        {
          "internalType": "bool",
          "name": "",
          "type": "bool"
        }
      ],
      "stateMutability": "nonpayable",
      "type": "function"
    },
    {
      "inputs": [
        {
          "internalType": "address",
          "name": "from",
          "type": "address"
        },
        {
          "internalType": "address",
          "name": "to",
          "type": "address"
        },
        {
          "internalType": "uint256",
          "name": "amount",
          "type": "uint256"
        }
      ],
      "name": "transferFrom",
      "outputs": [
        {
          "internalType": "bool",
          "name": "",
          "type": "bool"
        }
      ],
      "stateMutability": "nonpayable",
      "type": "function"
    },
    {
      "inputs": [
        {
          "internalType": "address",
          "name": "newOwner",
          "type": "address"
        }
      ],
      "name": "transferOwnership",
      "outputs": [],
      "stateMutability": "nonpayable",
      "type": "function"
    },
    {
      "inputs": [],
      "name": "pause",
      "outputs": [],
      "stateMutability": "nonpayable",
      "type": "function"
    },
    {
      "inputs": [],
      "name": "unpause",
      "outputs": [],
      "stateMutability": "nonpayable",
      "type": "function"
    },
    {
      "inputs": [
        {
          "internalType": "address",
          "name": "to",
          "type": "address"
        },
        {
          "internalType": "uint256",
          "name": "amount",
          "type": "uint256"
        }
      ],
      "name": "mint",
      "outputs": [],
      "stateMutability": "nonpayable",
      "type": "function"
    },
    {
      "inputs": [
        {
          "internalType": "address",
          "name": "requester",
          "type": "address"
        }
      ],
      "name": "faucet",
      "outputs": [],
      "stateMutability": "nonpayable",
      "type": "function"
    },
    {
      "inputs": [],
      "name": "decimals",
      "outputs": [
        {
          "internalType": "uint8",
          "name": "",
          "type": "uint8"
        }
      ],
      "stateMutability": "view",
      "type": "function"
    }
  ],
  "bytecode": "0x6101406040523480156200001257600080fd5b506040518060400160405280600b81526020017f526f636b6574546f6b656e000000000000000000000000000000000000000000815250806040518060400160405280600181526020017f31000000000000000000000000000000000000000000000000000000000000008152506040518060400160405280600b81526020017f526f636b6574546f6b656e0000000000000000000000000000000000000000008152506040518060400160405280600681526020017f524f434b4554000000000000000000000000000000000000000000000000000081525081600390805190602001906200010492919062000551565b5080600490805190602001906200011d92919062000551565b5050506000600560006101000a81548160ff0219169083151502179055506200015b6200014f6200023e60201b60201c565b6200024660201b60201c565b60008280519060200120905060008280519060200120905060007f8b73c3c69bb8fe3d512ecc4cf759cc79239f7b179b0ffacaa9a75d522b39400f90508260e081815250508161010081815250504660a08181525050620001c48184846200030c60201b60201c565b608081815250503073ffffffffffffffffffffffffffffffffffffffff1660c08173ffffffffffffffffffffffffffffffffffffffff168152505080610120818152505050505050505062000222336103e86200034860201b60201c565b6200023830633b9aca006200034860201b60201c565b620008db565b600033905090565b6000600560019054906101000a900473ffffffffffffffffffffffffffffffffffffffff16905081600560016101000a81548173ffffffffffffffffffffffffffffffffffffffff021916908373ffffffffffffffffffffffffffffffffffffffff1602179055508173ffffffffffffffffffffffffffffffffffffffff168173ffffffffffffffffffffffffffffffffffffffff167f8be0079c531659141344cd1fd0a4f28419497f9722a3daafe3b4186f6b6457e060405160405180910390a35050565b60008383834630604051602001620003299594939291906200067c565b6040516020818303038152906040528051906020012090509392505050565b600073ffffffffffffffffffffffffffffffffffffffff168273ffffffffffffffffffffffffffffffffffffffff1603620003ba576040517f08c379a0000000000000000000000000000000000000000000000000000000008152600401620003b1906200073a565b60405180910390fd5b620003ce60008383620004c060201b60201c565b8060026000828254620003e291906200078b565b92505081905550806000808473ffffffffffffffffffffffffffffffffffffffff1673ffffffffffffffffffffffffffffffffffffffff16815260200190815260200160002060008282546200043991906200078b565b925050819055508173ffffffffffffffffffffffffffffffffffffffff16600073ffffffffffffffffffffffffffffffffffffffff167fddf252ad1be2c89b69c2b068fc378daa952ba7f163c4a11628f55a4df523b3ef83604051620004a09190620007e8565b60405180910390a3620004bc600083836200053060201b60201c565b5050565b620004d06200053560201b60201c565b1562000513576040517f08c379a00000000000000000000000000000000000000000000000000000000081526004016200050a9062000855565b60405180910390fd5b6200052b8383836200054c60201b62000d791760201c565b505050565b505050565b6000600560009054906101000a900460ff16905090565b505050565b8280546200055f90620008a6565b90600052602060002090601f016020900481019282620005835760008555620005cf565b82601f106200059e57805160ff1916838001178555620005cf565b82800160010185558215620005cf579182015b82811115620005ce578251825591602001919060010190620005b1565b5b509050620005de9190620005e2565b5090565b5b80821115620005fd576000816000905550600101620005e3565b5090565b6000819050919050565b620006168162000601565b82525050565b6000819050919050565b62000631816200061c565b82525050565b600073ffffffffffffffffffffffffffffffffffffffff82169050919050565b6000620006648262000637565b9050919050565b620006768162000657565b82525050565b600060a0820190506200069360008301886200060b565b620006a260208301876200060b565b620006b160408301866200060b565b620006c0606083018562000626565b620006cf60808301846200066b565b9695505050505050565b600082825260208201905092915050565b7f45524332303a206d696e7420746f20746865207a65726f206164647265737300600082015250565b600062000722601f83620006d9565b91506200072f82620006ea565b602082019050919050565b60006020820190508181036000830152620007558162000713565b9050919050565b7f4e487b7100000000000000000000000000000000000000000000000000000000600052601160045260246000fd5b600062000798826200061c565b9150620007a5836200061c565b9250827fffffffffffffffffffffffffffffffffffffffffffffffffffffffffffffffff03821115620007dd57620007dc6200075c565b5b828201905092915050565b6000602082019050620007ff600083018462000626565b92915050565b7f5061757361626c653a2070617573656400000000000000000000000000000000600082015250565b60006200083d601083620006d9565b91506200084a8262000805565b602082019050919050565b6000602082019050818103600083015262000870816200082e565b9050919050565b7f4e487b7100000000000000000000000000000000000000000000000000000000600052602260045260246000fd5b60006002820490506001821680620008bf57607f821691505b602082108103620008d557620008d462000877565b5b50919050565b60805160a05160c05160e0516101005161012051612bfc6200092b60003960006113080152600061134a015260006113290152600061125e015260006112b4015260006112dd0152612bfc6000f3fe608060405234801561001057600080fd5b506004361061014d5760003560e01c8063715018a6116100c3578063a9059cbb1161007c578063a9059cbb1461037e578063b86d1d63146103ae578063d505accf146103ca578063d5ace7ba146103e6578063dd62ed3e14610416578063f2fde38b146104465761014d565b8063715018a6146102ce5780637ecebe00146102d85780638456cb59146103085780638da5cb5b1461031257806395d89b4114610330578063a457c2d71461034e5761014d565b80633644e515116101155780633644e5151461020c578063395093511461022a5780633f4ba83a1461025a57806340c10f19146102645780635c975abb1461028057806370a082311461029e5761014d565b806306fdde0314610152578063095ea7b31461017057806318160ddd146101a057806323b872dd146101be578063313ce567146101ee575b600080fd5b61015a610462565b6040516101679190611be0565b60405180910390f35b61018a60048036038101906101859190611c9b565b6104f4565b6040516101979190611cf6565b60405180910390f35b6101a8610517565b6040516101b59190611d20565b60405180910390f35b6101d860048036038101906101d39190611d3b565b610521565b6040516101e59190611cf6565b60405180910390f35b6101f6610550565b6040516102039190611daa565b60405180910390f35b610214610555565b6040516102219190611dde565b60405180910390f35b610244600480360381019061023f9190611c9b565b610564565b6040516102519190611cf6565b60405180910390f35b61026261059b565b005b61027e60048036038101906102799190611c9b565b610621565b005b6102886106ab565b6040516102959190611cf6565b60405180910390f35b6102b860048036038101906102b39190611df9565b6106c2565b6040516102c59190611d20565b60405180910390f35b6102d661070a565b005b6102f260048036038101906102ed9190611df9565b610792565b6040516102ff9190611d20565b60405180910390f35b6103106107e2565b005b61031a610868565b6040516103279190611e35565b60405180910390f35b610338610892565b6040516103459190611be0565b60405180910390f35b61036860048036038101906103639190611c9b565b610924565b6040516103759190611cf6565b60405180910390f35b61039860048036038101906103939190611c9b565b61099b565b6040516103a59190611cf6565b60405180910390f35b6103c860048036038101906103c39190611df9565b6109be565b005b6103e460048036038101906103df9190611ea8565b610aa1565b005b61040060048036038101906103fb9190611df9565b610be3565b60405161040d9190611d20565b60405180910390f35b610430600480360381019061042b9190611f4a565b610bfb565b60405161043d9190611d20565b60405180910390f35b610460600480360381019061045b9190611df9565b610c82565b005b60606003805461047190611fb9565b80601f016020809104026020016040519081016040528092919081815260200182805461049d90611fb9565b80156104ea5780601f106104bf576101008083540402835291602001916104ea565b820191906000526020600020905b8154815290600101906020018083116104cd57829003601f168201915b5050505050905090565b6000806104ff610d7e565b905061050c818585610d86565b600191505092915050565b6000600254905090565b60008061052c610d7e565b9050610539858285610f4f565b610544858585610fdb565b60019150509392505050565b600090565b600061055f61125a565b905090565b60008061056f610d7e565b90506105908185856105818589610bfb565b61058b9190612019565b610d86565b600191505092915050565b6105a3610d7e565b73ffffffffffffffffffffffffffffffffffffffff166105c1610868565b73ffffffffffffffffffffffffffffffffffffffff1614610617576040517f08c379a000000000000000000000000000000000000000000000000000000000815260040161060e906120bb565b60405180910390fd5b61061f611374565b565b610629610d7e565b73ffffffffffffffffffffffffffffffffffffffff16610647610868565b73ffffffffffffffffffffffffffffffffffffffff161461069d576040517f08c379a0000000000000000000000000000000000000000000000000000000008152600401610694906120bb565b60405180910390fd5b6106a78282611416565b5050565b6000600560009054906101000a900460ff16905090565b60008060008373ffffffffffffffffffffffffffffffffffffffff1673ffffffffffffffffffffffffffffffffffffffff168152602001908152602001600020549050919050565b610712610d7e565b73ffffffffffffffffffffffffffffffffffffffff16610730610868565b73ffffffffffffffffffffffffffffffffffffffff1614610786576040517f08c379a000000000000000000000000000000000000000000000000000000000815260040161077d906120bb565b60405180910390fd5b6107906000611575565b565b60006107db600660008473ffffffffffffffffffffffffffffffffffffffff1673ffffffffffffffffffffffffffffffffffffffff16815260200190815260200160002061163b565b9050919050565b6107ea610d7e565b73ffffffffffffffffffffffffffffffffffffffff16610808610868565b73ffffffffffffffffffffffffffffffffffffffff161461085e576040517f08c379a0000000000000000000000000000000000000000000000000000000008152600401610855906120bb565b60405180910390fd5b610866611649565b565b6000600560019054906101000a900473ffffffffffffffffffffffffffffffffffffffff16905090565b6060600480546108a190611fb9565b80601f01602080910402602001604051908101604052809291908181526020018280546108cd90611fb9565b801561091a5780601f106108ef5761010080835404028352916020019161091a565b820191906000526020600020905b8154815290600101906020018083116108fd57829003601f168201915b5050505050905090565b60008061092f610d7e565b9050600061093d8286610bfb565b905083811015610982576040517f08c379a00000000000000000000000000000000000000000000000000000000081526004016109799061214d565b60405180910390fd5b61098f8286868403610d86565b60019250505092915050565b6000806109a6610d7e565b90506109b3818585610fdb565b600191505092915050565b62015180600860008373ffffffffffffffffffffffffffffffffffffffff1673ffffffffffffffffffffffffffffffffffffffff16815260200190815260200160002054610a0c9190612019565b421015610a4e576040517f08c379a0000000000000000000000000000000000000000000000000000000008152600401610a45906121df565b60405180910390fd5b42600860008373ffffffffffffffffffffffffffffffffffffffff1673ffffffffffffffffffffffffffffffffffffffff16815260200190815260200160002081905550610a9e30826064610fdb565b50565b83421115610ae4576040517f08c379a0000000000000000000000000000000000000000000000000000000008152600401610adb9061224b565b60405180910390fd5b60007f6e71edae12b1b97f4d1f60370fef10105fa2faae0126114a169c64845d6126c9888888610b138c6116ec565b89604051602001610b299695949392919061226b565b6040516020818303038152906040528051906020012090506000610b4c8261174a565b90506000610b5c82878787611764565b90508973ffffffffffffffffffffffffffffffffffffffff168173ffffffffffffffffffffffffffffffffffffffff1614610bcc576040517f08c379a0000000000000000000000000000000000000000000000000000000008152600401610bc390612318565b60405180910390fd5b610bd78a8a8a610d86565b50505050505050505050565b60086020528060005260406000206000915090505481565b6000600160008473ffffffffffffffffffffffffffffffffffffffff1673ffffffffffffffffffffffffffffffffffffffff16815260200190815260200160002060008373ffffffffffffffffffffffffffffffffffffffff1673ffffffffffffffffffffffffffffffffffffffff16815260200190815260200160002054905092915050565b610c8a610d7e565b73ffffffffffffffffffffffffffffffffffffffff16610ca8610868565b73ffffffffffffffffffffffffffffffffffffffff1614610cfe576040517f08c379a0000000000000000000000000000000000000000000000000000000008152600401610cf5906120bb565b60405180910390fd5b600073ffffffffffffffffffffffffffffffffffffffff168173ffffffffffffffffffffffffffffffffffffffff1603610d6d576040517f08c379a0000000000000000000000000000000000000000000000000000000008152600401610d64906123aa565b60405180910390fd5b610d7681611575565b50565b505050565b600033905090565b600073ffffffffffffffffffffffffffffffffffffffff168373ffffffffffffffffffffffffffffffffffffffff1603610df5576040517f08c379a0000000000000000000000000000000000000000000000000000000008152600401610dec9061243c565b60405180910390fd5b600073ffffffffffffffffffffffffffffffffffffffff168273ffffffffffffffffffffffffffffffffffffffff1603610e64576040517f08c379a0000000000000000000000000000000000000000000000000000000008152600401610e5b906124ce565b60405180910390fd5b80600160008573ffffffffffffffffffffffffffffffffffffffff1673ffffffffffffffffffffffffffffffffffffffff16815260200190815260200160002060008473ffffffffffffffffffffffffffffffffffffffff1673ffffffffffffffffffffffffffffffffffffffff168152602001908152602001600020819055508173ffffffffffffffffffffffffffffffffffffffff168373ffffffffffffffffffffffffffffffffffffffff167f8c5be1e5ebec7d5bd14f71427d1e84f3dd0314c0f7b2291e5b200ac8c7c3b92583604051610f429190611d20565b60405180910390a3505050565b6000610f5b8484610bfb565b90507fffffffffffffffffffffffffffffffffffffffffffffffffffffffffffffffff8114610fd55781811015610fc7576040517f08c379a0000000000000000000000000000000000000000000000000000000008152600401610fbe9061253a565b60405180910390fd5b610fd48484848403610d86565b5b50505050565b600073ffffffffffffffffffffffffffffffffffffffff168373ffffffffffffffffffffffffffffffffffffffff160361104a576040517f08c379a0000000000000000000000000000000000000000000000000000000008152600401611041906125cc565b60405180910390fd5b600073ffffffffffffffffffffffffffffffffffffffff168273ffffffffffffffffffffffffffffffffffffffff16036110b9576040517f08c379a00000000000000000000000000000000000000000000000000000000081526004016110b09061265e565b60405180910390fd5b6110c483838361178f565b60008060008573ffffffffffffffffffffffffffffffffffffffff1673ffffffffffffffffffffffffffffffffffffffff1681526020019081526020016000205490508181101561114a576040517f08c379a0000000000000000000000000000000000000000000000000000000008152600401611141906126f0565b60405180910390fd5b8181036000808673ffffffffffffffffffffffffffffffffffffffff1673ffffffffffffffffffffffffffffffffffffffff16815260200190815260200160002081905550816000808573ffffffffffffffffffffffffffffffffffffffff1673ffffffffffffffffffffffffffffffffffffffff16815260200190815260200160002060008282546111dd9190612019565b925050819055508273ffffffffffffffffffffffffffffffffffffffff168473ffffffffffffffffffffffffffffffffffffffff167fddf252ad1be2c89b69c2b068fc378daa952ba7f163c4a11628f55a4df523b3ef846040516112419190611d20565b60405180910390a36112548484846117e7565b50505050565b60007f000000000000000000000000000000000000000000000000000000000000000073ffffffffffffffffffffffffffffffffffffffff163073ffffffffffffffffffffffffffffffffffffffff161480156112d657507f000000000000000000000000000000000000000000000000000000000000000046145b15611303577f00000000000000000000000000000000000000000000000000000000000000009050611371565b61136e7f00000000000000000000000000000000000000000000000000000000000000007f00000000000000000000000000000000000000000000000000000000000000007f00000000000000000000000000000000000000000000000000000000000000006117ec565b90505b90565b61137c6106ab565b6113bb576040517f08c379a00000000000000000000000000000000000000000000000000000000081526004016113b29061275c565b60405180910390fd5b6000600560006101000a81548160ff0219169083151502179055507f5db9ee0a495bf2e6ff9c91a7834c1ba4fdd244a5e8aa4e537bd38aeae4b073aa6113ff610d7e565b60405161140c9190611e35565b60405180910390a1565b600073ffffffffffffffffffffffffffffffffffffffff168273ffffffffffffffffffffffffffffffffffffffff1603611485576040517f08c379a000000000000000000000000000000000000000000000000000000000815260040161147c906127c8565b60405180910390fd5b6114916000838361178f565b80600260008282546114a39190612019565b92505081905550806000808473ffffffffffffffffffffffffffffffffffffffff1673ffffffffffffffffffffffffffffffffffffffff16815260200190815260200160002060008282546114f89190612019565b925050819055508173ffffffffffffffffffffffffffffffffffffffff16600073ffffffffffffffffffffffffffffffffffffffff167fddf252ad1be2c89b69c2b068fc378daa952ba7f163c4a11628f55a4df523b3ef8360405161155d9190611d20565b60405180910390a3611571600083836117e7565b5050565b6000600560019054906101000a900473ffffffffffffffffffffffffffffffffffffffff16905081600560016101000a81548173ffffffffffffffffffffffffffffffffffffffff021916908373ffffffffffffffffffffffffffffffffffffffff1602179055508173ffffffffffffffffffffffffffffffffffffffff168173ffffffffffffffffffffffffffffffffffffffff167f8be0079c531659141344cd1fd0a4f28419497f9722a3daafe3b4186f6b6457e060405160405180910390a35050565b600081600001549050919050565b6116516106ab565b15611691576040517f08c379a000000000000000000000000000000000000000000000000000000000815260040161168890612834565b60405180910390fd5b6001600560006101000a81548160ff0219169083151502179055507f62e78cea01bee320cd4e420270b5ea74000d11b0c9f74754ebdbfc544b05a2586116d5610d7e565b6040516116e29190611e35565b60405180910390a1565b600080600660008473ffffffffffffffffffffffffffffffffffffffff1673ffffffffffffffffffffffffffffffffffffffff16815260200190815260200160002090506117398161163b565b915061174481611826565b50919050565b600061175d61175761125a565b8361183c565b9050919050565b60008060006117758787878761186f565b915091506117828161197b565b8192505050949350505050565b6117976106ab565b156117d7576040517f08c379a00000000000000000000000000000000000000000000000000000000081526004016117ce90612834565b60405180910390fd5b6117e2838383610d79565b505050565b505050565b60008383834630604051602001611807959493929190612854565b6040516020818303038152906040528051906020012090509392505050565b6001816000016000828254019250508190555050565b6000828260405160200161185192919061291f565b60405160208183030381529060405280519060200120905092915050565b6000807f7fffffffffffffffffffffffffffffff5d576e7357a4501ddfe92f46681b20a08360001c11156118aa576000600391509150611972565b601b8560ff16141580156118c25750601c8560ff1614155b156118d4576000600491509150611972565b6000600187878787604051600081526020016040526040516118f99493929190612956565b6020604051602081039080840390855afa15801561191b573d6000803e3d6000fd5b505050602060405103519050600073ffffffffffffffffffffffffffffffffffffffff168173ffffffffffffffffffffffffffffffffffffffff160361196957600060019250925050611972565b80600092509250505b94509492505050565b6000600481111561198f5761198e61299b565b5b8160048111156119a2576119a161299b565b5b0315611b4457600160048111156119bc576119bb61299b565b5b8160048111156119cf576119ce61299b565b5b03611a0f576040517f08c379a0000000000000000000000000000000000000000000000000000000008152600401611a0690612a16565b60405180910390fd5b60026004811115611a2357611a2261299b565b5b816004811115611a3657611a3561299b565b5b03611a76576040517f08c379a0000000000000000000000000000000000000000000000000000000008152600401611a6d90612a82565b60405180910390fd5b60036004811115611a8a57611a8961299b565b5b816004811115611a9d57611a9c61299b565b5b03611add576040517f08c379a0000000000000000000000000000000000000000000000000000000008152600401611ad490612b14565b60405180910390fd5b600480811115611af057611aef61299b565b5b816004811115611b0357611b0261299b565b5b03611b43576040517f08c379a0000000000000000000000000000000000000000000000000000000008152600401611b3a90612ba6565b60405180910390fd5b5b50565b600081519050919050565b600082825260208201905092915050565b60005b83811015611b81578082015181840152602081019050611b66565b83811115611b90576000848401525b50505050565b6000601f19601f8301169050919050565b6000611bb282611b47565b611bbc8185611b52565b9350611bcc818560208601611b63565b611bd581611b96565b840191505092915050565b60006020820190508181036000830152611bfa8184611ba7565b905092915050565b600080fd5b600073ffffffffffffffffffffffffffffffffffffffff82169050919050565b6000611c3282611c07565b9050919050565b611c4281611c27565b8114611c4d57600080fd5b50565b600081359050611c5f81611c39565b92915050565b6000819050919050565b611c7881611c65565b8114611c8357600080fd5b50565b600081359050611c9581611c6f565b92915050565b60008060408385031215611cb257611cb1611c02565b5b6000611cc085828601611c50565b9250506020611cd185828601611c86565b9150509250929050565b60008115159050919050565b611cf081611cdb565b82525050565b6000602082019050611d0b6000830184611ce7565b92915050565b611d1a81611c65565b82525050565b6000602082019050611d356000830184611d11565b92915050565b600080600060608486031215611d5457611d53611c02565b5b6000611d6286828701611c50565b9350506020611d7386828701611c50565b9250506040611d8486828701611c86565b9150509250925092565b600060ff82169050919050565b611da481611d8e565b82525050565b6000602082019050611dbf6000830184611d9b565b92915050565b6000819050919050565b611dd881611dc5565b82525050565b6000602082019050611df36000830184611dcf565b92915050565b600060208284031215611e0f57611e0e611c02565b5b6000611e1d84828501611c50565b91505092915050565b611e2f81611c27565b82525050565b6000602082019050611e4a6000830184611e26565b92915050565b611e5981611d8e565b8114611e6457600080fd5b50565b600081359050611e7681611e50565b92915050565b611e8581611dc5565b8114611e9057600080fd5b50565b600081359050611ea281611e7c565b92915050565b600080600080600080600060e0888a031215611ec757611ec6611c02565b5b6000611ed58a828b01611c50565b9750506020611ee68a828b01611c50565b9650506040611ef78a828b01611c86565b9550506060611f088a828b01611c86565b9450506080611f198a828b01611e67565b93505060a0611f2a8a828b01611e93565b92505060c0611f3b8a828b01611e93565b91505092959891949750929550565b60008060408385031215611f6157611f60611c02565b5b6000611f6f85828601611c50565b9250506020611f8085828601611c50565b9150509250929050565b7f4e487b7100000000000000000000000000000000000000000000000000000000600052602260045260246000fd5b60006002820490506001821680611fd157607f821691505b602082108103611fe457611fe3611f8a565b5b50919050565b7f4e487b7100000000000000000000000000000000000000000000000000000000600052601160045260246000fd5b600061202482611c65565b915061202f83611c65565b9250827fffffffffffffffffffffffffffffffffffffffffffffffffffffffffffffffff0382111561206457612063611fea565b5b828201905092915050565b7f4f776e61626c653a2063616c6c6572206973206e6f7420746865206f776e6572600082015250565b60006120a5602083611b52565b91506120b08261206f565b602082019050919050565b600060208201905081810360008301526120d481612098565b9050919050565b7f45524332303a2064656372656173656420616c6c6f77616e63652062656c6f7760008201527f207a65726f000000000000000000000000000000000000000000000000000000602082015250565b6000612137602583611b52565b9150612142826120db565b604082019050919050565b600060208201905081810360008301526121668161212a565b9050919050565b7f4f6e6c79206f6e6520726571756573742063616e206265206d6164652070657260008201527f2064617900000000000000000000000000000000000000000000000000000000602082015250565b60006121c9602483611b52565b91506121d48261216d565b604082019050919050565b600060208201905081810360008301526121f8816121bc565b9050919050565b7f45524332305065726d69743a206578706972656420646561646c696e65000000600082015250565b6000612235601d83611b52565b9150612240826121ff565b602082019050919050565b6000602082019050818103600083015261226481612228565b9050919050565b600060c0820190506122806000830189611dcf565b61228d6020830188611e26565b61229a6040830187611e26565b6122a76060830186611d11565b6122b46080830185611d11565b6122c160a0830184611d11565b979650505050505050565b7f45524332305065726d69743a20696e76616c6964207369676e61747572650000600082015250565b6000612302601e83611b52565b915061230d826122cc565b602082019050919050565b60006020820190508181036000830152612331816122f5565b9050919050565b7f4f776e61626c653a206e6577206f776e657220697320746865207a65726f206160008201527f6464726573730000000000000000000000000000000000000000000000000000602082015250565b6000612394602683611b52565b915061239f82612338565b604082019050919050565b600060208201905081810360008301526123c381612387565b9050919050565b7f45524332303a20617070726f76652066726f6d20746865207a65726f2061646460008201527f7265737300000000000000000000000000000000000000000000000000000000602082015250565b6000612426602483611b52565b9150612431826123ca565b604082019050919050565b6000602082019050818103600083015261245581612419565b9050919050565b7f45524332303a20617070726f766520746f20746865207a65726f20616464726560008201527f7373000000000000000000000000000000000000000000000000000000000000602082015250565b60006124b8602283611b52565b91506124c38261245c565b604082019050919050565b600060208201905081810360008301526124e7816124ab565b9050919050565b7f45524332303a20696e73756666696369656e7420616c6c6f77616e6365000000600082015250565b6000612524601d83611b52565b915061252f826124ee565b602082019050919050565b6000602082019050818103600083015261255381612517565b9050919050565b7f45524332303a207472616e736665722066726f6d20746865207a65726f20616460008201527f6472657373000000000000000000000000000000000000000000000000000000602082015250565b60006125b6602583611b52565b91506125c18261255a565b604082019050919050565b600060208201905081810360008301526125e5816125a9565b9050919050565b7f45524332303a207472616e7366657220746f20746865207a65726f206164647260008201527f6573730000000000000000000000000000000000000000000000000000000000602082015250565b6000612648602383611b52565b9150612653826125ec565b604082019050919050565b600060208201905081810360008301526126778161263b565b9050919050565b7f45524332303a207472616e7366657220616d6f756e742065786365656473206260008201527f616c616e63650000000000000000000000000000000000000000000000000000602082015250565b60006126da602683611b52565b91506126e58261267e565b604082019050919050565b60006020820190508181036000830152612709816126cd565b9050919050565b7f5061757361626c653a206e6f7420706175736564000000000000000000000000600082015250565b6000612746601483611b52565b915061275182612710565b602082019050919050565b6000602082019050818103600083015261277581612739565b9050919050565b7f45524332303a206d696e7420746f20746865207a65726f206164647265737300600082015250565b60006127b2601f83611b52565b91506127bd8261277c565b602082019050919050565b600060208201905081810360008301526127e1816127a5565b9050919050565b7f5061757361626c653a2070617573656400000000000000000000000000000000600082015250565b600061281e601083611b52565b9150612829826127e8565b602082019050919050565b6000602082019050818103600083015261284d81612811565b9050919050565b600060a0820190506128696000830188611dcf565b6128766020830187611dcf565b6128836040830186611dcf565b6128906060830185611d11565b61289d6080830184611e26565b9695505050505050565b600081905092915050565b7f1901000000000000000000000000000000000000000000000000000000000000600082015250565b60006128e86002836128a7565b91506128f3826128b2565b600282019050919050565b6000819050919050565b61291961291482611dc5565b6128fe565b82525050565b600061292a826128db565b91506129368285612908565b6020820191506129468284612908565b6020820191508190509392505050565b600060808201905061296b6000830187611dcf565b6129786020830186611d9b565b6129856040830185611dcf565b6129926060830184611dcf565b95945050505050565b7f4e487b7100000000000000000000000000000000000000000000000000000000600052602160045260246000fd5b7f45434453413a20696e76616c6964207369676e61747572650000000000000000600082015250565b6000612a00601883611b52565b9150612a0b826129ca565b602082019050919050565b60006020820190508181036000830152612a2f816129f3565b9050919050565b7f45434453413a20696e76616c6964207369676e6174757265206c656e67746800600082015250565b6000612a6c601f83611b52565b9150612a7782612a36565b602082019050919050565b60006020820190508181036000830152612a9b81612a5f565b9050919050565b7f45434453413a20696e76616c6964207369676e6174757265202773272076616c60008201527f7565000000000000000000000000000000000000000000000000000000000000602082015250565b6000612afe602283611b52565b9150612b0982612aa2565b604082019050919050565b60006020820190508181036000830152612b2d81612af1565b9050919050565b7f45434453413a20696e76616c6964207369676e6174757265202776272076616c60008201527f7565000000000000000000000000000000000000000000000000000000000000602082015250565b6000612b90602283611b52565b9150612b9b82612b34565b604082019050919050565b60006020820190508181036000830152612bbf81612b83565b905091905056fea2646970667358221220ee2f4a2b7854982217681f5b8b5387b8e56080e3a907fc25de7cb6e882f75a1764736f6c634300080d0033",
  "immutableReferences": {
    "3654": [
      {
        "length": 32,
        "start": 4829
      }
    ],
    "3656": [
      {
        "length": 32,
        "start": 4788
      }
    ],
    "3658": [
      {
        "length": 32,
        "start": 4702
      }
    ],
    "3660": [
      {
        "length": 32,
        "start": 4905
      }
    ],
    "3662": [
      {
        "length": 32,
        "start": 4938
      }
    ],
    "3664": [
      {
        "length": 32,
        "start": 4872
      }
    ]
  },
  "source": "// SPDX-License-Identifier: MIT\npragma solidity ^0.8.9;\n\nimport \"@openzeppelin/contracts/token/ERC20/ERC20.sol\";\nimport \"@openzeppelin/contracts/security/Pausable.sol\";\nimport \"@openzeppelin/contracts/access/Ownable.sol\";\nimport \"@openzeppelin/contracts/token/ERC20/extensions/draft-ERC20Permit.sol\";\n\ncontract RocketToken is ERC20, Pausable, Ownable, ERC20Permit {\n\nmapping(address => uint) public lastFaucetRequest;\n\n    constructor() ERC20(\"RocketToken\", \"ROCKET\") ERC20Permit(\"RocketToken\") {\n        _mint(msg.sender, 1000);\n        _mint(address(this), 1000000000);\n    }\n\n    function pause() public onlyOwner {\n        _pause();\n    }\n\n    function unpause() public onlyOwner {\n        _unpause();\n    }\n\n    function mint(address to, uint256 amount) public onlyOwner {\n        _mint(to, amount);\n    }\n\n    function faucet(address requester) public {\n        require(block.timestamp >= lastFaucetRequest[requester] + 86400, \"Only one request can be made per day\");\n        lastFaucetRequest[requester] = block.timestamp;\n        _transfer(address(this), requester, 100);\n    }\n\n    function decimals() public view virtual override returns (uint8) {\n        return 0;\n    }\n\n    function _beforeTokenTransfer(address from, address to, uint256 amount)\n        internal\n        whenNotPaused\n        override\n    {\n        super._beforeTokenTransfer(from, to, amount);\n    }\n}\n",
  "sourcePath": "/Users/Ironlithium/Desktop/Rocket_Elevators_Blockchain/contracts/RocketToken.sol",
  "compiler": {
    "name": "solc",
    "version": "0.8.13+commit.abaa5c0e.Emscripten.clang"
  },
  "schemaVersion": "3.4.6",
  "updatedAt": "2022-05-07T03:16:13.178Z",
  "networkType": "ethereum",
  "devdoc": {
    "kind": "dev",
    "methods": {
      "DOMAIN_SEPARATOR()": {
        "details": "See {IERC20Permit-DOMAIN_SEPARATOR}."
      },
      "allowance(address,address)": {
        "details": "See {IERC20-allowance}."
      },
      "approve(address,uint256)": {
        "details": "See {IERC20-approve}. NOTE: If `amount` is the maximum `uint256`, the allowance is not updated on `transferFrom`. This is semantically equivalent to an infinite approval. Requirements: - `spender` cannot be the zero address."
      },
      "balanceOf(address)": {
        "details": "See {IERC20-balanceOf}."
      },
      "decimals()": {
        "details": "Returns the number of decimals used to get its user representation. For example, if `decimals` equals `2`, a balance of `505` tokens should be displayed to a user as `5.05` (`505 / 10 ** 2`). Tokens usually opt for a value of 18, imitating the relationship between Ether and Wei. This is the value {ERC20} uses, unless this function is overridden; NOTE: This information is only used for _display_ purposes: it in no way affects any of the arithmetic of the contract, including {IERC20-balanceOf} and {IERC20-transfer}."
      },
      "decreaseAllowance(address,uint256)": {
        "details": "Atomically decreases the allowance granted to `spender` by the caller. This is an alternative to {approve} that can be used as a mitigation for problems described in {IERC20-approve}. Emits an {Approval} event indicating the updated allowance. Requirements: - `spender` cannot be the zero address. - `spender` must have allowance for the caller of at least `subtractedValue`."
      },
      "increaseAllowance(address,uint256)": {
        "details": "Atomically increases the allowance granted to `spender` by the caller. This is an alternative to {approve} that can be used as a mitigation for problems described in {IERC20-approve}. Emits an {Approval} event indicating the updated allowance. Requirements: - `spender` cannot be the zero address."
      },
      "name()": {
        "details": "Returns the name of the token."
      },
      "nonces(address)": {
        "details": "See {IERC20Permit-nonces}."
      },
      "owner()": {
        "details": "Returns the address of the current owner."
      },
      "paused()": {
        "details": "Returns true if the contract is paused, and false otherwise."
      },
      "permit(address,address,uint256,uint256,uint8,bytes32,bytes32)": {
        "details": "See {IERC20Permit-permit}."
      },
      "renounceOwnership()": {
        "details": "Leaves the contract without owner. It will not be possible to call `onlyOwner` functions anymore. Can only be called by the current owner. NOTE: Renouncing ownership will leave the contract without an owner, thereby removing any functionality that is only available to the owner."
      },
      "symbol()": {
        "details": "Returns the symbol of the token, usually a shorter version of the name."
      },
      "totalSupply()": {
        "details": "See {IERC20-totalSupply}."
      },
      "transfer(address,uint256)": {
        "details": "See {IERC20-transfer}. Requirements: - `to` cannot be the zero address. - the caller must have a balance of at least `amount`."
      },
      "transferFrom(address,address,uint256)": {
        "details": "See {IERC20-transferFrom}. Emits an {Approval} event indicating the updated allowance. This is not required by the EIP. See the note at the beginning of {ERC20}. NOTE: Does not update the allowance if the current allowance is the maximum `uint256`. Requirements: - `from` and `to` cannot be the zero address. - `from` must have a balance of at least `amount`. - the caller must have allowance for ``from``'s tokens of at least `amount`."
      },
      "transferOwnership(address)": {
        "details": "Transfers ownership of the contract to a new account (`newOwner`). Can only be called by the current owner."
      }
    },
    "version": 1
  },
  "userdoc": {
    "kind": "user",
    "methods": {},
    "version": 1
  }
}