{
  "contractName": "RocketNFT",
  "abi": [
    {
      "inputs": [],
      "stateMutability": "nonpayable",
      "type": "constructor"
    },
    {
      "anonymous": false,
      "inputs": [
        {
          "indexed": true,
          "internalType": "address",
          "name": "owner",
          "type": "address"
        },
        {
          "indexed": true,
          "internalType": "address",
          "name": "approved",
          "type": "address"
        },
        {
          "indexed": true,
          "internalType": "uint256",
          "name": "tokenId",
          "type": "uint256"
        }
      ],
      "name": "Approval",
      "type": "event"
    },
    {
      "anonymous": false,
      "inputs": [
        {
          "indexed": true,
          "internalType": "address",
          "name": "owner",
          "type": "address"
        },
        {
          "indexed": true,
          "internalType": "address",
          "name": "operator",
          "type": "address"
        },
        {
          "indexed": false,
          "internalType": "bool",
          "name": "approved",
          "type": "bool"
        }
      ],
      "name": "ApprovalForAll",
      "type": "event"
    },
    {
      "anonymous": false,
      "inputs": [
        {
          "indexed": true,
          "internalType": "address",
          "name": "previousOwner",
          "type": "address"
        },
        {
          "indexed": true,
          "internalType": "address",
          "name": "newOwner",
          "type": "address"
        }
      ],
      "name": "OwnershipTransferred",
      "type": "event"
    },
    {
      "anonymous": false,
      "inputs": [
        {
          "indexed": false,
          "internalType": "address",
          "name": "account",
          "type": "address"
        }
      ],
      "name": "Paused",
      "type": "event"
    },
    {
      "anonymous": false,
      "inputs": [
        {
          "indexed": true,
          "internalType": "address",
          "name": "from",
          "type": "address"
        },
        {
          "indexed": true,
          "internalType": "address",
          "name": "to",
          "type": "address"
        },
        {
          "indexed": true,
          "internalType": "uint256",
          "name": "tokenId",
          "type": "uint256"
        }
      ],
      "name": "Transfer",
      "type": "event"
    },
    {
      "anonymous": false,
      "inputs": [
        {
          "indexed": false,
          "internalType": "address",
          "name": "account",
          "type": "address"
        }
      ],
      "name": "Unpaused",
      "type": "event"
    },
    {
      "inputs": [],
      "name": "ROCKETTOKENADDRESS",
      "outputs": [
        {
          "internalType": "address",
          "name": "",
          "type": "address"
        }
      ],
      "stateMutability": "view",
      "type": "function",
      "constant": true
    },
    {
      "inputs": [
        {
          "internalType": "address",
          "name": "to",
          "type": "address"
        },
        {
          "internalType": "uint256",
          "name": "tokenId",
          "type": "uint256"
        }
      ],
      "name": "approve",
      "outputs": [],
      "stateMutability": "nonpayable",
      "type": "function"
    },
    {
      "inputs": [
        {
          "internalType": "address",
          "name": "owner",
          "type": "address"
        }
      ],
      "name": "balanceOf",
      "outputs": [
        {
          "internalType": "uint256",
          "name": "",
          "type": "uint256"
        }
      ],
      "stateMutability": "view",
      "type": "function",
      "constant": true
    },
    {
      "inputs": [
        {
          "internalType": "address",
          "name": "",
          "type": "address"
        }
      ],
      "name": "freeMintUsed",
      "outputs": [
        {
          "internalType": "bool",
          "name": "",
          "type": "bool"
        }
      ],
      "stateMutability": "view",
      "type": "function",
      "constant": true
    },
    {
      "inputs": [
        {
          "internalType": "uint256",
          "name": "tokenId",
          "type": "uint256"
        }
      ],
      "name": "getApproved",
      "outputs": [
        {
          "internalType": "address",
          "name": "",
          "type": "address"
        }
      ],
      "stateMutability": "view",
      "type": "function",
      "constant": true
    },
    {
      "inputs": [
        {
          "internalType": "address",
          "name": "owner",
          "type": "address"
        },
        {
          "internalType": "address",
          "name": "operator",
          "type": "address"
        }
      ],
      "name": "isApprovedForAll",
      "outputs": [
        {
          "internalType": "bool",
          "name": "",
          "type": "bool"
        }
      ],
      "stateMutability": "view",
      "type": "function",
      "constant": true
    },
    {
      "inputs": [],
      "name": "maticPrice",
      "outputs": [
        {
          "internalType": "uint256",
          "name": "",
          "type": "uint256"
        }
      ],
      "stateMutability": "view",
      "type": "function",
      "constant": true
    },
    {
      "inputs": [],
      "name": "name",
      "outputs": [
        {
          "internalType": "string",
          "name": "",
          "type": "string"
        }
      ],
      "stateMutability": "view",
      "type": "function",
      "constant": true
    },
    {
      "inputs": [],
      "name": "owner",
      "outputs": [
        {
          "internalType": "address",
          "name": "",
          "type": "address"
        }
      ],
      "stateMutability": "view",
      "type": "function",
      "constant": true
    },
    {
      "inputs": [
        {
          "internalType": "uint256",
          "name": "tokenId",
          "type": "uint256"
        }
      ],
      "name": "ownerOf",
      "outputs": [
        {
          "internalType": "address",
          "name": "",
          "type": "address"
        }
      ],
      "stateMutability": "view",
      "type": "function",
      "constant": true
    },
    {
      "inputs": [],
      "name": "paused",
      "outputs": [
        {
          "internalType": "bool",
          "name": "",
          "type": "bool"
        }
      ],
      "stateMutability": "view",
      "type": "function",
      "constant": true
    },
    {
      "inputs": [],
      "name": "renounceOwnership",
      "outputs": [],
      "stateMutability": "nonpayable",
      "type": "function"
    },
    {
      "inputs": [],
      "name": "rocketPrice",
      "outputs": [
        {
          "internalType": "uint256",
          "name": "",
          "type": "uint256"
        }
      ],
      "stateMutability": "view",
      "type": "function",
      "constant": true
    },
    {
      "inputs": [
        {
          "internalType": "address",
          "name": "from",
          "type": "address"
        },
        {
          "internalType": "address",
          "name": "to",
          "type": "address"
        },
        {
          "internalType": "uint256",
          "name": "tokenId",
          "type": "uint256"
        }
      ],
      "name": "safeTransferFrom",
      "outputs": [],
      "stateMutability": "nonpayable",
      "type": "function"
    },
    {
      "inputs": [
        {
          "internalType": "address",
          "name": "from",
          "type": "address"
        },
        {
          "internalType": "address",
          "name": "to",
          "type": "address"
        },
        {
          "internalType": "uint256",
          "name": "tokenId",
          "type": "uint256"
        },
        {
          "internalType": "bytes",
          "name": "_data",
          "type": "bytes"
        }
      ],
      "name": "safeTransferFrom",
      "outputs": [],
      "stateMutability": "nonpayable",
      "type": "function"
    },
    {
      "inputs": [
        {
          "internalType": "address",
          "name": "operator",
          "type": "address"
        },
        {
          "internalType": "bool",
          "name": "approved",
          "type": "bool"
        }
      ],
      "name": "setApprovalForAll",
      "outputs": [],
      "stateMutability": "nonpayable",
      "type": "function"
    },
    {
      "inputs": [],
      "name": "symbol",
      "outputs": [
        {
          "internalType": "string",
          "name": "",
          "type": "string"
        }
      ],
      "stateMutability": "view",
      "type": "function",
      "constant": true
    },
    {
      "inputs": [
        {
          "internalType": "uint256",
          "name": "index",
          "type": "uint256"
        }
      ],
      "name": "tokenByIndex",
      "outputs": [
        {
          "internalType": "uint256",
          "name": "",
          "type": "uint256"
        }
      ],
      "stateMutability": "view",
      "type": "function",
      "constant": true
    },
    {
      "inputs": [
        {
          "internalType": "address",
          "name": "owner",
          "type": "address"
        },
        {
          "internalType": "uint256",
          "name": "index",
          "type": "uint256"
        }
      ],
      "name": "tokenOfOwnerByIndex",
      "outputs": [
        {
          "internalType": "uint256",
          "name": "",
          "type": "uint256"
        }
      ],
      "stateMutability": "view",
      "type": "function",
      "constant": true
    },
    {
      "inputs": [],
      "name": "totalSupply",
      "outputs": [
        {
          "internalType": "uint256",
          "name": "",
          "type": "uint256"
        }
      ],
      "stateMutability": "view",
      "type": "function",
      "constant": true
    },
    {
      "inputs": [
        {
          "internalType": "address",
          "name": "from",
          "type": "address"
        },
        {
          "internalType": "address",
          "name": "to",
          "type": "address"
        },
        {
          "internalType": "uint256",
          "name": "tokenId",
          "type": "uint256"
        }
      ],
      "name": "transferFrom",
      "outputs": [],
      "stateMutability": "nonpayable",
      "type": "function"
    },
    {
      "inputs": [
        {
          "internalType": "address",
          "name": "newOwner",
          "type": "address"
        }
      ],
      "name": "transferOwnership",
      "outputs": [],
      "stateMutability": "nonpayable",
      "type": "function"
    },
    {
      "inputs": [
        {
          "internalType": "address",
          "name": "",
          "type": "address"
        }
      ],
      "name": "whitelisted",
      "outputs": [
        {
          "internalType": "bool",
          "name": "",
          "type": "bool"
        }
      ],
      "stateMutability": "view",
      "type": "function",
      "constant": true
    },
    {
      "inputs": [
        {
          "internalType": "address",
          "name": "requester",
          "type": "address"
        },
        {
          "internalType": "string",
          "name": "ipfs",
          "type": "string"
        }
      ],
      "name": "mintForFree",
      "outputs": [],
      "stateMutability": "nonpayable",
      "type": "function"
    },
    {
      "inputs": [
        {
          "internalType": "address",
          "name": "requester",
          "type": "address"
        },
        {
          "internalType": "string",
          "name": "ipfs",
          "type": "string"
        }
      ],
      "name": "mintWithMatic",
      "outputs": [],
      "stateMutability": "payable",
      "type": "function",
      "payable": true
    },
    {
      "inputs": [
        {
          "internalType": "address",
          "name": "requester",
          "type": "address"
        },
        {
          "internalType": "string",
          "name": "ipfs",
          "type": "string"
        }
      ],
      "name": "mintWithRocket",
      "outputs": [],
      "stateMutability": "payable",
      "type": "function",
      "payable": true
    },
    {
      "inputs": [
        {
          "internalType": "address",
          "name": "requester",
          "type": "address"
        }
      ],
      "name": "checkRocketBalance",
      "outputs": [
        {
          "internalType": "uint256",
          "name": "",
          "type": "uint256"
        }
      ],
      "stateMutability": "view",
      "type": "function",
      "constant": true
    },
    {
      "inputs": [],
      "name": "withdrawWithMatic",
      "outputs": [],
      "stateMutability": "payable",
      "type": "function",
      "payable": true
    },
    {
      "inputs": [],
      "name": "withdrawWithRocket",
      "outputs": [],
      "stateMutability": "nonpayable",
      "type": "function"
    },
    {
      "inputs": [
        {
          "internalType": "address",
          "name": "rocketTokenAddress",
          "type": "address"
        }
      ],
      "name": "setRocketTokenAddress",
      "outputs": [
        {
          "internalType": "address",
          "name": "",
          "type": "address"
        }
      ],
      "stateMutability": "nonpayable",
      "type": "function"
    },
    {
      "inputs": [],
      "name": "confirmRocketTokenAddress",
      "outputs": [
        {
          "internalType": "address",
          "name": "",
          "type": "address"
        }
      ],
      "stateMutability": "view",
      "type": "function",
      "constant": true
    },
    {
      "inputs": [
        {
          "internalType": "uint256",
          "name": "tokenId",
          "type": "uint256"
        }
      ],
      "name": "getAllowance",
      "outputs": [
        {
          "internalType": "address",
          "name": "",
          "type": "address"
        }
      ],
      "stateMutability": "view",
      "type": "function",
      "constant": true
    },
    {
      "inputs": [
        {
          "internalType": "address",
          "name": "requester",
          "type": "address"
        }
      ],
      "name": "isWhitelisted",
      "outputs": [
        {
          "internalType": "bool",
          "name": "",
          "type": "bool"
        }
      ],
      "stateMutability": "view",
      "type": "function",
      "constant": true
    },
    {
      "inputs": [
        {
          "internalType": "address",
          "name": "receiver",
          "type": "address"
        }
      ],
      "name": "addToWhitelist",
      "outputs": [],
      "stateMutability": "nonpayable",
      "type": "function"
    },
    {
      "inputs": [
        {
          "internalType": "address",
          "name": "requester",
          "type": "address"
        }
      ],
      "name": "checkFreeMintUsage",
      "outputs": [
        {
          "internalType": "bool",
          "name": "",
          "type": "bool"
        }
      ],
      "stateMutability": "view",
      "type": "function",
      "constant": true
    },
    {
      "inputs": [
        {
          "internalType": "uint256[]",
          "name": "tokenIds",
          "type": "uint256[]"
        }
      ],
      "name": "getTokenURIs",
      "outputs": [
        {
          "internalType": "string[]",
          "name": "",
          "type": "string[]"
        }
      ],
      "stateMutability": "view",
      "type": "function",
      "constant": true
    },
    {
      "inputs": [
        {
          "internalType": "address",
          "name": "requester",
          "type": "address"
        }
      ],
      "name": "isEligibleForFreeNFT",
      "outputs": [
        {
          "internalType": "bool",
          "name": "",
          "type": "bool"
        }
      ],
      "stateMutability": "view",
      "type": "function",
      "constant": true
    },
    {
      "inputs": [
        {
          "internalType": "address",
          "name": "owner",
          "type": "address"
        }
      ],
      "name": "getTokenIdsOfOwner",
      "outputs": [
        {
          "internalType": "uint256[]",
          "name": "",
          "type": "uint256[]"
        }
      ],
      "stateMutability": "view",
      "type": "function",
      "constant": true
    },
    {
      "inputs": [
        {
          "internalType": "address",
          "name": "to",
          "type": "address"
        },
        {
          "internalType": "string",
          "name": "ipfsURI",
          "type": "string"
        }
      ],
      "name": "safeMint",
      "outputs": [],
      "stateMutability": "nonpayable",
      "type": "function"
    },
    {
      "inputs": [],
      "name": "pause",
      "outputs": [],
      "stateMutability": "nonpayable",
      "type": "function"
    },
    {
      "inputs": [],
      "name": "unpause",
      "outputs": [],
      "stateMutability": "nonpayable",
      "type": "function"
    },
    {
      "inputs": [
        {
          "internalType": "uint256",
          "name": "tokenId",
          "type": "uint256"
        }
      ],
      "name": "burn",
      "outputs": [],
      "stateMutability": "nonpayable",
      "type": "function"
    },
    {
      "inputs": [
        {
          "internalType": "uint256",
          "name": "tokenId",
          "type": "uint256"
        }
      ],
      "name": "tokenURI",
      "outputs": [
        {
          "internalType": "string",
          "name": "",
          "type": "string"
        }
      ],
      "stateMutability": "view",
      "type": "function",
      "constant": true
    },
    {
      "inputs": [
        {
          "internalType": "bytes4",
          "name": "interfaceId",
          "type": "bytes4"
        }
      ],
      "name": "supportsInterface",
      "outputs": [
        {
          "internalType": "bool",
          "name": "",
          "type": "bool"
        }
      ],
      "stateMutability": "view",
      "type": "function",
      "constant": true
    }
  ],
  "bytecode": "0x60806040523480156200001157600080fd5b506040518060400160405280600981526020017f526f636b65744e465400000000000000000000000000000000000000000000008152506040518060400160405280600281526020017f524500000000000000000000000000000000000000000000000000000000000081525081600090805190602001906200009692919062000388565b508060019080519060200190620000af92919062000388565b5050506000600760006101000a81548160ff021916908315150217905550620000ed620000e1620002ba60201b60201c565b620002c260201b60201c565b6001600d8190555067016345785d8a0000600e8190555060016013600073fb4736eade1a08c42e65aa187dd32c36e160aacc73ffffffffffffffffffffffffffffffffffffffff1673ffffffffffffffffffffffffffffffffffffffff16815260200190815260200160002060006101000a81548160ff021916908315150217905550600160136000734b507f8f6a7b1650e926483f2b0dcb6faec9fcb173ffffffffffffffffffffffffffffffffffffffff1673ffffffffffffffffffffffffffffffffffffffff16815260200190815260200160002060006101000a81548160ff0219169083151502179055506001601360007337719d62be56b9cb0ede514c5071894e1590bd1473ffffffffffffffffffffffffffffffffffffffff1673ffffffffffffffffffffffffffffffffffffffff16815260200190815260200160002060006101000a81548160ff02191690831515021790555060016013600073ec206446346bf108e31cb79d28e93070dcc99fb873ffffffffffffffffffffffffffffffffffffffff1673ffffffffffffffffffffffffffffffffffffffff16815260200190815260200160002060006101000a81548160ff0219169083151502179055506200049c565b600033905090565b6000600760019054906101000a900473ffffffffffffffffffffffffffffffffffffffff16905081600760016101000a81548173ffffffffffffffffffffffffffffffffffffffff021916908373ffffffffffffffffffffffffffffffffffffffff1602179055508173ffffffffffffffffffffffffffffffffffffffff168173ffffffffffffffffffffffffffffffffffffffff167f8be0079c531659141344cd1fd0a4f28419497f9722a3daafe3b4186f6b6457e060405160405180910390a35050565b828054620003969062000467565b90600052602060002090601f016020900481019282620003ba576000855562000406565b82601f10620003d557805160ff191683800117855562000406565b8280016001018555821562000406579182015b8281111562000405578251825591602001919060010190620003e8565b5b50905062000415919062000419565b5090565b5b80821115620004345760008160009055506001016200041a565b5090565b7f4e487b7100000000000000000000000000000000000000000000000000000000600052602260045260246000fd5b600060028204905060018216806200048057607f821691505b60208210810362000496576200049562000438565b5b50919050565b6152f180620004ac6000396000f3fe6080604052600436106102675760003560e01c80636fb07a3611610144578063c960174e116100b6578063d936547e1161007a578063d936547e14610960578063dbedf0b61461099d578063e43252d7146109c6578063e985e9c5146109ef578063f2fde38b14610a2c578063f3ddd02714610a5557610267565b8063c960174e14610855578063c9e2f14514610892578063d204c45e146108cf578063d5363035146108f8578063d8ac7e081461092357610267565b80638da5cb5b116101085780638da5cb5b1461073357806395d89b411461075e578063a22cb46514610789578063b88d4fde146107b2578063bf729607146107db578063c87b56dd1461081857610267565b80636fb07a361461067457806370a08231146106b1578063715018a6146106ee57806372561ecc146107055780638456cb591461071c57610267565b80633b67a760116101dd57806345ea451a116101a157806345ea451a1461053c5780634f6ccce7146105675780635c975abb146105a457806361e4dd68146105cf5780636257e2a6146105fa5780636352211e1461063757610267565b80633b67a7601461048c5780633f4ba83a1461049657806342842e0e146104ad57806342966c68146104d6578063456cc814146104ff57610267565b8063145227721161022f578063145227721461037757806318160ddd1461039357806323b872dd146103be5780632f745c59146103e757806334fedd67146104245780633af32abf1461044f57610267565b806301ffc9a71461026c57806306fdde03146102a9578063081812fc146102d457806308a5d0ad14610311578063095ea7b31461034e575b600080fd5b34801561027857600080fd5b50610293600480360381019061028e9190613852565b610a71565b6040516102a0919061389a565b60405180910390f35b3480156102b557600080fd5b506102be610a83565b6040516102cb919061394e565b60405180910390f35b3480156102e057600080fd5b506102fb60048036038101906102f691906139a6565b610b15565b6040516103089190613a14565b60405180910390f35b34801561031d57600080fd5b5061033860048036038101906103339190613a5b565b610b9a565b6040516103459190613b46565b60405180910390f35b34801561035a57600080fd5b5061037560048036038101906103709190613b68565b610c50565b005b610391600480360381019061038c9190613cdd565b610d67565b005b34801561039f57600080fd5b506103a8610dba565b6040516103b59190613d48565b60405180910390f35b3480156103ca57600080fd5b506103e560048036038101906103e09190613d63565b610dc7565b005b3480156103f357600080fd5b5061040e60048036038101906104099190613b68565b610e27565b60405161041b9190613d48565b60405180910390f35b34801561043057600080fd5b50610439610ecc565b6040516104469190613a14565b60405180910390f35b34801561045b57600080fd5b5061047660048036038101906104719190613a5b565b610ef6565b604051610483919061389a565b60405180910390f35b610494610f4c565b005b3480156104a257600080fd5b506104ab611011565b005b3480156104b957600080fd5b506104d460048036038101906104cf9190613d63565b611097565b005b3480156104e257600080fd5b506104fd60048036038101906104f891906139a6565b6110b7565b005b34801561050b57600080fd5b5061052660048036038101906105219190613a5b565b6110c3565b604051610533919061389a565b60405180910390f35b34801561054857600080fd5b506105516110e3565b60405161055e9190613d48565b60405180910390f35b34801561057357600080fd5b5061058e600480360381019061058991906139a6565b6110e9565b60405161059b9190613d48565b60405180910390f35b3480156105b057600080fd5b506105b961115a565b6040516105c6919061389a565b60405180910390f35b3480156105db57600080fd5b506105e4611171565b6040516105f19190613a14565b60405180910390f35b34801561060657600080fd5b50610621600480360381019061061c9190613a5b565b611197565b60405161062e9190613a14565b60405180910390f35b34801561064357600080fd5b5061065e600480360381019061065991906139a6565b61125c565b60405161066b9190613a14565b60405180910390f35b34801561068057600080fd5b5061069b60048036038101906106969190613a5b565b61130d565b6040516106a8919061389a565b60405180910390f35b3480156106bd57600080fd5b506106d860048036038101906106d39190613a5b565b611363565b6040516106e59190613d48565b60405180910390f35b3480156106fa57600080fd5b5061070361141a565b005b34801561071157600080fd5b5061071a6114a2565b005b34801561072857600080fd5b50610731611646565b005b34801561073f57600080fd5b506107486116cc565b6040516107559190613a14565b60405180910390f35b34801561076a57600080fd5b506107736116f6565b604051610780919061394e565b60405180910390f35b34801561079557600080fd5b506107b060048036038101906107ab9190613de2565b611788565b005b3480156107be57600080fd5b506107d960048036038101906107d49190613ec3565b61179e565b005b3480156107e757600080fd5b5061080260048036038101906107fd919061400e565b611800565b60405161080f9190614163565b60405180910390f35b34801561082457600080fd5b5061083f600480360381019061083a91906139a6565b6118bf565b60405161084c919061394e565b60405180910390f35b34801561086157600080fd5b5061087c600480360381019061087791906139a6565b6118d1565b6040516108899190613a14565b60405180910390f35b34801561089e57600080fd5b506108b960048036038101906108b49190613a5b565b61190e565b6040516108c69190613d48565b60405180910390f35b3480156108db57600080fd5b506108f660048036038101906108f19190613cdd565b6119be565b005b34801561090457600080fd5b5061090d611a6b565b60405161091a9190613d48565b60405180910390f35b34801561092f57600080fd5b5061094a60048036038101906109459190613a5b565b611a71565b604051610957919061389a565b60405180910390f35b34801561096c57600080fd5b5061098760048036038101906109829190613a5b565b611b34565b604051610994919061389a565b60405180910390f35b3480156109a957600080fd5b506109c460048036038101906109bf9190613cdd565b611b54565b005b3480156109d257600080fd5b506109ed60048036038101906109e89190613a5b565b611c2e565b005b3480156109fb57600080fd5b50610a166004803603810190610a119190614185565b611d05565b604051610a23919061389a565b60405180910390f35b348015610a3857600080fd5b50610a536004803603810190610a4e9190613a5b565b611d99565b005b610a6f6004803603810190610a6a9190613cdd565b611e90565b005b6000610a7c82611f48565b9050919050565b606060008054610a92906141f4565b80601f0160208091040260200160405190810160405280929190818152602001828054610abe906141f4565b8015610b0b5780601f10610ae057610100808354040283529160200191610b0b565b820191906000526020600020905b815481529060010190602001808311610aee57829003601f168201915b5050505050905090565b6000610b2082611fc2565b610b5f576040517f08c379a0000000000000000000000000000000000000000000000000000000008152600401610b5690614297565b60405180910390fd5b6004600083815260200190815260200160002060009054906101000a900473ffffffffffffffffffffffffffffffffffffffff169050919050565b60606000610ba783611363565b67ffffffffffffffff811115610bc057610bbf613bb2565b5b604051908082528060200260200182016040528015610bee5781602001602082028036833780820191505090505b5090506000610bfc84611363565b905060005b81811015610c4557610c138582610e27565b838281518110610c2657610c256142b7565b5b6020026020010181815250508080610c3d90614315565b915050610c01565b829350505050919050565b6000610c5b8261125c565b90508073ffffffffffffffffffffffffffffffffffffffff168373ffffffffffffffffffffffffffffffffffffffff1603610ccb576040517f08c379a0000000000000000000000000000000000000000000000000000000008152600401610cc2906143cf565b60405180910390fd5b8073ffffffffffffffffffffffffffffffffffffffff16610cea61202e565b73ffffffffffffffffffffffffffffffffffffffff161480610d195750610d1881610d1361202e565b611d05565b5b610d58576040517f08c379a0000000000000000000000000000000000000000000000000000000008152600401610d4f90614461565b60405180910390fd5b610d628383612036565b505050565b600e54341015610dac576040517f08c379a0000000000000000000000000000000000000000000000000000000008152600401610da3906144f3565b60405180910390fd5b610db682826119be565b5050565b6000600a80549050905090565b610dd8610dd261202e565b826120ef565b610e17576040517f08c379a0000000000000000000000000000000000000000000000000000000008152600401610e0e90614585565b60405180910390fd5b610e228383836121cd565b505050565b6000610e3283611363565b8210610e73576040517f08c379a0000000000000000000000000000000000000000000000000000000008152600401610e6a90614617565b60405180910390fd5b600860008473ffffffffffffffffffffffffffffffffffffffff1673ffffffffffffffffffffffffffffffffffffffff168152602001908152602001600020600083815260200190815260200160002054905092915050565b6000600f60009054906101000a900473ffffffffffffffffffffffffffffffffffffffff16905090565b6000601360008373ffffffffffffffffffffffffffffffffffffffff1673ffffffffffffffffffffffffffffffffffffffff16815260200190815260200160002060009054906101000a900460ff169050919050565b610f5461202e565b73ffffffffffffffffffffffffffffffffffffffff16610f726116cc565b73ffffffffffffffffffffffffffffffffffffffff1614610fc8576040517f08c379a0000000000000000000000000000000000000000000000000000000008152600401610fbf90614683565b60405180910390fd5b3373ffffffffffffffffffffffffffffffffffffffff166108fc479081150290604051600060405180830381858888f1935050505015801561100e573d6000803e3d6000fd5b50565b61101961202e565b73ffffffffffffffffffffffffffffffffffffffff166110376116cc565b73ffffffffffffffffffffffffffffffffffffffff161461108d576040517f08c379a000000000000000000000000000000000000000000000000000000000815260040161108490614683565b60405180910390fd5b611095612433565b565b6110b28383836040518060200160405280600081525061179e565b505050565b6110c0816124d5565b50565b60126020528060005260406000206000915054906101000a900460ff1681565b600e5481565b60006110f3610dba565b8210611134576040517f08c379a000000000000000000000000000000000000000000000000000000000815260040161112b90614715565b60405180910390fd5b600a8281548110611148576111476142b7565b5b90600052602060002001549050919050565b6000600760009054906101000a900460ff16905090565b600f60009054906101000a900473ffffffffffffffffffffffffffffffffffffffff1681565b60006111a161202e565b73ffffffffffffffffffffffffffffffffffffffff166111bf6116cc565b73ffffffffffffffffffffffffffffffffffffffff1614611215576040517f08c379a000000000000000000000000000000000000000000000000000000000815260040161120c90614683565b60405180910390fd5b81600f60006101000a81548173ffffffffffffffffffffffffffffffffffffffff021916908373ffffffffffffffffffffffffffffffffffffffff16021790559050919050565b6000806002600084815260200190815260200160002060009054906101000a900473ffffffffffffffffffffffffffffffffffffffff169050600073ffffffffffffffffffffffffffffffffffffffff168173ffffffffffffffffffffffffffffffffffffffff1603611304576040517f08c379a00000000000000000000000000000000000000000000000000000000081526004016112fb906147a7565b60405180910390fd5b80915050919050565b6000601260008373ffffffffffffffffffffffffffffffffffffffff1673ffffffffffffffffffffffffffffffffffffffff16815260200190815260200160002060009054906101000a900460ff169050919050565b60008073ffffffffffffffffffffffffffffffffffffffff168273ffffffffffffffffffffffffffffffffffffffff16036113d3576040517f08c379a00000000000000000000000000000000000000000000000000000000081526004016113ca90614839565b60405180910390fd5b600360008373ffffffffffffffffffffffffffffffffffffffff1673ffffffffffffffffffffffffffffffffffffffff168152602001908152602001600020549050919050565b61142261202e565b73ffffffffffffffffffffffffffffffffffffffff166114406116cc565b73ffffffffffffffffffffffffffffffffffffffff1614611496576040517f08c379a000000000000000000000000000000000000000000000000000000000815260040161148d90614683565b60405180910390fd5b6114a060006124e1565b565b6114aa61202e565b73ffffffffffffffffffffffffffffffffffffffff166114c86116cc565b73ffffffffffffffffffffffffffffffffffffffff161461151e576040517f08c379a000000000000000000000000000000000000000000000000000000000815260040161151590614683565b60405180910390fd5b6000600f60009054906101000a900473ffffffffffffffffffffffffffffffffffffffff16905060008173ffffffffffffffffffffffffffffffffffffffff166370a08231306040518263ffffffff1660e01b81526004016115809190613a14565b602060405180830381865afa15801561159d573d6000803e3d6000fd5b505050506040513d601f19601f820116820180604052508101906115c1919061486e565b90508173ffffffffffffffffffffffffffffffffffffffff1663a9059cbb33836040518363ffffffff1660e01b81526004016115fe92919061489b565b6020604051808303816000875af115801561161d573d6000803e3d6000fd5b505050506040513d601f19601f8201168201806040525081019061164191906148d9565b505050565b61164e61202e565b73ffffffffffffffffffffffffffffffffffffffff1661166c6116cc565b73ffffffffffffffffffffffffffffffffffffffff16146116c2576040517f08c379a00000000000000000000000000000000000000000000000000000000081526004016116b990614683565b60405180910390fd5b6116ca6125a7565b565b6000600760019054906101000a900473ffffffffffffffffffffffffffffffffffffffff16905090565b606060018054611705906141f4565b80601f0160208091040260200160405190810160405280929190818152602001828054611731906141f4565b801561177e5780601f106117535761010080835404028352916020019161177e565b820191906000526020600020905b81548152906001019060200180831161176157829003601f168201915b5050505050905090565b61179a61179361202e565b838361264a565b5050565b6117af6117a961202e565b836120ef565b6117ee576040517f08c379a00000000000000000000000000000000000000000000000000000000081526004016117e590614585565b60405180910390fd5b6117fa848484846127b6565b50505050565b60606000825167ffffffffffffffff81111561181f5761181e613bb2565b5b60405190808252806020026020018201604052801561185257816020015b606081526020019060019003908161183d5790505b50905060005b83518110156118b557611884848281518110611877576118766142b7565b5b60200260200101516118bf565b828281518110611897576118966142b7565b5b602002602001018190525080806118ad90614315565b915050611858565b8192505050919050565b60606118ca82612812565b9050919050565b60006014600083815260200190815260200160002060009054906101000a900473ffffffffffffffffffffffffffffffffffffffff169050919050565b600080600f60009054906101000a900473ffffffffffffffffffffffffffffffffffffffff16905060008173ffffffffffffffffffffffffffffffffffffffff166370a08231856040518263ffffffff1660e01b81526004016119719190613a14565b602060405180830381865afa15801561198e573d6000803e3d6000fd5b505050506040513d601f19601f820116820180604052508101906119b2919061486e565b90508092505050919050565b6119c661202e565b73ffffffffffffffffffffffffffffffffffffffff166119e46116cc565b73ffffffffffffffffffffffffffffffffffffffff1614611a3a576040517f08c379a0000000000000000000000000000000000000000000000000000000008152600401611a3190614683565b60405180910390fd5b6000611a46600c612963565b9050611a52600c612971565b611a5c8382612987565b611a6681836129a5565b505050565b600d5481565b6000601360008373ffffffffffffffffffffffffffffffffffffffff1673ffffffffffffffffffffffffffffffffffffffff16815260200190815260200160002060009054906101000a900460ff168015611b1c575060001515601260008473ffffffffffffffffffffffffffffffffffffffff1673ffffffffffffffffffffffffffffffffffffffff16815260200190815260200160002060009054906101000a900460ff161515145b15611b2a5760019050611b2f565b600090505b919050565b60136020528060005260406000206000915054906101000a900460ff1681565b611b5d82610ef6565b8015611bb9575060001515601260008473ffffffffffffffffffffffffffffffffffffffff1673ffffffffffffffffffffffffffffffffffffffff16815260200190815260200160002060009054906101000a900460ff161515145b15611c2557611bc882826119be565b6001601260008473ffffffffffffffffffffffffffffffffffffffff1673ffffffffffffffffffffffffffffffffffffffff16815260200190815260200160002060006101000a81548160ff021916908315150217905550611c2a565b600080fd5b5050565b611c3661202e565b73ffffffffffffffffffffffffffffffffffffffff16611c546116cc565b73ffffffffffffffffffffffffffffffffffffffff1614611caa576040517f08c379a0000000000000000000000000000000000000000000000000000000008152600401611ca190614683565b60405180910390fd5b6001601360008373ffffffffffffffffffffffffffffffffffffffff1673ffffffffffffffffffffffffffffffffffffffff16815260200190815260200160002060006101000a81548160ff02191690831515021790555050565b6000600560008473ffffffffffffffffffffffffffffffffffffffff1673ffffffffffffffffffffffffffffffffffffffff16815260200190815260200160002060008373ffffffffffffffffffffffffffffffffffffffff1673ffffffffffffffffffffffffffffffffffffffff16815260200190815260200160002060009054906101000a900460ff16905092915050565b611da161202e565b73ffffffffffffffffffffffffffffffffffffffff16611dbf6116cc565b73ffffffffffffffffffffffffffffffffffffffff1614611e15576040517f08c379a0000000000000000000000000000000000000000000000000000000008152600401611e0c90614683565b60405180910390fd5b600073ffffffffffffffffffffffffffffffffffffffff168173ffffffffffffffffffffffffffffffffffffffff1603611e84576040517f08c379a0000000000000000000000000000000000000000000000000000000008152600401611e7b90614978565b60405180910390fd5b611e8d816124e1565b50565b6000600f60009054906101000a900473ffffffffffffffffffffffffffffffffffffffff1690508073ffffffffffffffffffffffffffffffffffffffff166323b872dd843060016040518463ffffffff1660e01b8152600401611ef5939291906149dd565b6020604051808303816000875af1158015611f14573d6000803e3d6000fd5b505050506040513d601f19601f82011682018060405250810190611f3891906148d9565b50611f4383836119be565b505050565b60007f780e9d63000000000000000000000000000000000000000000000000000000007bffffffffffffffffffffffffffffffffffffffffffffffffffffffff1916827bffffffffffffffffffffffffffffffffffffffffffffffffffffffff19161480611fbb5750611fba82612a19565b5b9050919050565b60008073ffffffffffffffffffffffffffffffffffffffff166002600084815260200190815260200160002060009054906101000a900473ffffffffffffffffffffffffffffffffffffffff1673ffffffffffffffffffffffffffffffffffffffff1614159050919050565b600033905090565b816004600083815260200190815260200160002060006101000a81548173ffffffffffffffffffffffffffffffffffffffff021916908373ffffffffffffffffffffffffffffffffffffffff160217905550808273ffffffffffffffffffffffffffffffffffffffff166120a98361125c565b73ffffffffffffffffffffffffffffffffffffffff167f8c5be1e5ebec7d5bd14f71427d1e84f3dd0314c0f7b2291e5b200ac8c7c3b92560405160405180910390a45050565b60006120fa82611fc2565b612139576040517f08c379a000000000000000000000000000000000000000000000000000000000815260040161213090614a86565b60405180910390fd5b60006121448361125c565b90508073ffffffffffffffffffffffffffffffffffffffff168473ffffffffffffffffffffffffffffffffffffffff16148061218657506121858185611d05565b5b806121c457508373ffffffffffffffffffffffffffffffffffffffff166121ac84610b15565b73ffffffffffffffffffffffffffffffffffffffff16145b91505092915050565b8273ffffffffffffffffffffffffffffffffffffffff166121ed8261125c565b73ffffffffffffffffffffffffffffffffffffffff1614612243576040517f08c379a000000000000000000000000000000000000000000000000000000000815260040161223a90614b18565b60405180910390fd5b600073ffffffffffffffffffffffffffffffffffffffff168273ffffffffffffffffffffffffffffffffffffffff16036122b2576040517f08c379a00000000000000000000000000000000000000000000000000000000081526004016122a990614baa565b60405180910390fd5b6122bd838383612afb565b6122c8600082612036565b6001600360008573ffffffffffffffffffffffffffffffffffffffff1673ffffffffffffffffffffffffffffffffffffffff16815260200190815260200160002060008282546123189190614bca565b925050819055506001600360008473ffffffffffffffffffffffffffffffffffffffff1673ffffffffffffffffffffffffffffffffffffffff168152602001908152602001600020600082825461236f9190614bfe565b92505081905550816002600083815260200190815260200160002060006101000a81548173ffffffffffffffffffffffffffffffffffffffff021916908373ffffffffffffffffffffffffffffffffffffffff160217905550808273ffffffffffffffffffffffffffffffffffffffff168473ffffffffffffffffffffffffffffffffffffffff167fddf252ad1be2c89b69c2b068fc378daa952ba7f163c4a11628f55a4df523b3ef60405160405180910390a461242e838383612b0b565b505050565b61243b61115a565b61247a576040517f08c379a000000000000000000000000000000000000000000000000000000000815260040161247190614ca0565b60405180910390fd5b6000600760006101000a81548160ff0219169083151502179055507f5db9ee0a495bf2e6ff9c91a7834c1ba4fdd244a5e8aa4e537bd38aeae4b073aa6124be61202e565b6040516124cb9190613a14565b60405180910390a1565b6124de81612b10565b50565b6000600760019054906101000a900473ffffffffffffffffffffffffffffffffffffffff16905081600760016101000a81548173ffffffffffffffffffffffffffffffffffffffff021916908373ffffffffffffffffffffffffffffffffffffffff1602179055508173ffffffffffffffffffffffffffffffffffffffff168173ffffffffffffffffffffffffffffffffffffffff167f8be0079c531659141344cd1fd0a4f28419497f9722a3daafe3b4186f6b6457e060405160405180910390a35050565b6125af61115a565b156125ef576040517f08c379a00000000000000000000000000000000000000000000000000000000081526004016125e690614d0c565b60405180910390fd5b6001600760006101000a81548160ff0219169083151502179055507f62e78cea01bee320cd4e420270b5ea74000d11b0c9f74754ebdbfc544b05a25861263361202e565b6040516126409190613a14565b60405180910390a1565b8173ffffffffffffffffffffffffffffffffffffffff168373ffffffffffffffffffffffffffffffffffffffff16036126b8576040517f08c379a00000000000000000000000000000000000000000000000000000000081526004016126af90614d78565b60405180910390fd5b80600560008573ffffffffffffffffffffffffffffffffffffffff1673ffffffffffffffffffffffffffffffffffffffff16815260200190815260200160002060008473ffffffffffffffffffffffffffffffffffffffff1673ffffffffffffffffffffffffffffffffffffffff16815260200190815260200160002060006101000a81548160ff0219169083151502179055508173ffffffffffffffffffffffffffffffffffffffff168373ffffffffffffffffffffffffffffffffffffffff167f17307eab39ab6107e8899845ad3d59bd9653f200f220920489ca2b5937696c31836040516127a9919061389a565b60405180910390a3505050565b6127c18484846121cd565b6127cd84848484612b63565b61280c576040517f08c379a000000000000000000000000000000000000000000000000000000000815260040161280390614e0a565b60405180910390fd5b50505050565b606061281d82611fc2565b61285c576040517f08c379a000000000000000000000000000000000000000000000000000000000815260040161285390614e9c565b60405180910390fd5b600060066000848152602001908152602001600020805461287c906141f4565b80601f01602080910402602001604051908101604052809291908181526020018280546128a8906141f4565b80156128f55780601f106128ca576101008083540402835291602001916128f5565b820191906000526020600020905b8154815290600101906020018083116128d857829003601f168201915b505050505090506000612906612cea565b9050600081510361291b57819250505061295e565b600082511115612950578082604051602001612938929190614ef8565b6040516020818303038152906040529250505061295e565b61295984612d01565b925050505b919050565b600081600001549050919050565b6001816000016000828254019250508190555050565b6129a1828260405180602001604052806000815250612da8565b5050565b6129ae82611fc2565b6129ed576040517f08c379a00000000000000000000000000000000000000000000000000000000081526004016129e490614f8e565b60405180910390fd5b80600660008481526020019081526020016000209080519060200190612a14929190613703565b505050565b60007f80ac58cd000000000000000000000000000000000000000000000000000000007bffffffffffffffffffffffffffffffffffffffffffffffffffffffff1916827bffffffffffffffffffffffffffffffffffffffffffffffffffffffff19161480612ae457507f5b5e139f000000000000000000000000000000000000000000000000000000007bffffffffffffffffffffffffffffffffffffffffffffffffffffffff1916827bffffffffffffffffffffffffffffffffffffffffffffffffffffffff1916145b80612af45750612af382612e03565b5b9050919050565b612b06838383612e6d565b505050565b505050565b612b1981612f7f565b6000600660008381526020019081526020016000208054612b39906141f4565b905014612b6057600660008281526020019081526020016000206000612b5f9190613789565b5b50565b6000612b848473ffffffffffffffffffffffffffffffffffffffff1661309c565b15612cdd578373ffffffffffffffffffffffffffffffffffffffff1663150b7a02612bad61202e565b8786866040518563ffffffff1660e01b8152600401612bcf9493929190615003565b6020604051808303816000875af1925050508015612c0b57506040513d601f19601f82011682018060405250810190612c089190615064565b60015b612c8d573d8060008114612c3b576040519150601f19603f3d011682016040523d82523d6000602084013e612c40565b606091505b506000815103612c85576040517f08c379a0000000000000000000000000000000000000000000000000000000008152600401612c7c90614e0a565b60405180910390fd5b805181602001fd5b63150b7a0260e01b7bffffffffffffffffffffffffffffffffffffffffffffffffffffffff1916817bffffffffffffffffffffffffffffffffffffffffffffffffffffffff191614915050612ce2565b600190505b949350505050565b606060405180602001604052806000815250905090565b6060612d0c82611fc2565b612d4b576040517f08c379a0000000000000000000000000000000000000000000000000000000008152600401612d4290615103565b60405180910390fd5b6000612d55612cea565b90506000815111612d755760405180602001604052806000815250612da0565b80612d7f846130bf565b604051602001612d90929190614ef8565b6040516020818303038152906040525b915050919050565b612db2838361321f565b612dbf6000848484612b63565b612dfe576040517f08c379a0000000000000000000000000000000000000000000000000000000008152600401612df590614e0a565b60405180910390fd5b505050565b60007f01ffc9a7000000000000000000000000000000000000000000000000000000007bffffffffffffffffffffffffffffffffffffffffffffffffffffffff1916827bffffffffffffffffffffffffffffffffffffffffffffffffffffffff1916149050919050565b612e788383836133f8565b600073ffffffffffffffffffffffffffffffffffffffff168373ffffffffffffffffffffffffffffffffffffffff1603612eba57612eb5816133fd565b612ef9565b8173ffffffffffffffffffffffffffffffffffffffff168373ffffffffffffffffffffffffffffffffffffffff1614612ef857612ef78382613446565b5b5b600073ffffffffffffffffffffffffffffffffffffffff168273ffffffffffffffffffffffffffffffffffffffff1603612f3b57612f36816135b3565b612f7a565b8273ffffffffffffffffffffffffffffffffffffffff168273ffffffffffffffffffffffffffffffffffffffff1614612f7957612f788282613684565b5b5b505050565b6000612f8a8261125c565b9050612f9881600084612afb565b612fa3600083612036565b6001600360008373ffffffffffffffffffffffffffffffffffffffff1673ffffffffffffffffffffffffffffffffffffffff1681526020019081526020016000206000828254612ff39190614bca565b925050819055506002600083815260200190815260200160002060006101000a81549073ffffffffffffffffffffffffffffffffffffffff021916905581600073ffffffffffffffffffffffffffffffffffffffff168273ffffffffffffffffffffffffffffffffffffffff167fddf252ad1be2c89b69c2b068fc378daa952ba7f163c4a11628f55a4df523b3ef60405160405180910390a461309881600084612b0b565b5050565b6000808273ffffffffffffffffffffffffffffffffffffffff163b119050919050565b606060008203613106576040518060400160405280600181526020017f3000000000000000000000000000000000000000000000000000000000000000815250905061321a565b600082905060005b6000821461313857808061312190614315565b915050600a826131319190615152565b915061310e565b60008167ffffffffffffffff81111561315457613153613bb2565b5b6040519080825280601f01601f1916602001820160405280156131865781602001600182028036833780820191505090505b5090505b600085146132135760018261319f9190614bca565b9150600a856131ae9190615183565b60306131ba9190614bfe565b60f81b8183815181106131d0576131cf6142b7565b5b60200101907effffffffffffffffffffffffffffffffffffffffffffffffffffffffffffff1916908160001a905350600a8561320c9190615152565b945061318a565b8093505050505b919050565b600073ffffffffffffffffffffffffffffffffffffffff168273ffffffffffffffffffffffffffffffffffffffff160361328e576040517f08c379a000000000000000000000000000000000000000000000000000000000815260040161328590615200565b60405180910390fd5b61329781611fc2565b156132d7576040517f08c379a00000000000000000000000000000000000000000000000000000000081526004016132ce9061526c565b60405180910390fd5b6132e360008383612afb565b6001600360008473ffffffffffffffffffffffffffffffffffffffff1673ffffffffffffffffffffffffffffffffffffffff16815260200190815260200160002060008282546133339190614bfe565b92505081905550816002600083815260200190815260200160002060006101000a81548173ffffffffffffffffffffffffffffffffffffffff021916908373ffffffffffffffffffffffffffffffffffffffff160217905550808273ffffffffffffffffffffffffffffffffffffffff16600073ffffffffffffffffffffffffffffffffffffffff167fddf252ad1be2c89b69c2b068fc378daa952ba7f163c4a11628f55a4df523b3ef60405160405180910390a46133f460008383612b0b565b5050565b505050565b600a80549050600b600083815260200190815260200160002081905550600a81908060018154018082558091505060019003906000526020600020016000909190919091505550565b6000600161345384611363565b61345d9190614bca565b9050600060096000848152602001908152602001600020549050818114613542576000600860008673ffffffffffffffffffffffffffffffffffffffff1673ffffffffffffffffffffffffffffffffffffffff168152602001908152602001600020600084815260200190815260200160002054905080600860008773ffffffffffffffffffffffffffffffffffffffff1673ffffffffffffffffffffffffffffffffffffffff168152602001908152602001600020600084815260200190815260200160002081905550816009600083815260200190815260200160002081905550505b6009600084815260200190815260200160002060009055600860008573ffffffffffffffffffffffffffffffffffffffff1673ffffffffffffffffffffffffffffffffffffffff16815260200190815260200160002060008381526020019081526020016000206000905550505050565b60006001600a805490506135c79190614bca565b90506000600b60008481526020019081526020016000205490506000600a83815481106135f7576135f66142b7565b5b9060005260206000200154905080600a8381548110613619576136186142b7565b5b906000526020600020018190555081600b600083815260200190815260200160002081905550600b600085815260200190815260200160002060009055600a8054806136685761366761528c565b5b6001900381819060005260206000200160009055905550505050565b600061368f83611363565b905081600860008573ffffffffffffffffffffffffffffffffffffffff1673ffffffffffffffffffffffffffffffffffffffff168152602001908152602001600020600083815260200190815260200160002081905550806009600084815260200190815260200160002081905550505050565b82805461370f906141f4565b90600052602060002090601f0160209004810192826137315760008555613778565b82601f1061374a57805160ff1916838001178555613778565b82800160010185558215613778579182015b8281111561377757825182559160200191906001019061375c565b5b50905061378591906137c9565b5090565b508054613795906141f4565b6000825580601f106137a757506137c6565b601f0160209004906000526020600020908101906137c591906137c9565b5b50565b5b808211156137e25760008160009055506001016137ca565b5090565b6000604051905090565b600080fd5b600080fd5b60007fffffffff0000000000000000000000000000000000000000000000000000000082169050919050565b61382f816137fa565b811461383a57600080fd5b50565b60008135905061384c81613826565b92915050565b600060208284031215613868576138676137f0565b5b60006138768482850161383d565b91505092915050565b60008115159050919050565b6138948161387f565b82525050565b60006020820190506138af600083018461388b565b92915050565b600081519050919050565b600082825260208201905092915050565b60005b838110156138ef5780820151818401526020810190506138d4565b838111156138fe576000848401525b50505050565b6000601f19601f8301169050919050565b6000613920826138b5565b61392a81856138c0565b935061393a8185602086016138d1565b61394381613904565b840191505092915050565b600060208201905081810360008301526139688184613915565b905092915050565b6000819050919050565b61398381613970565b811461398e57600080fd5b50565b6000813590506139a08161397a565b92915050565b6000602082840312156139bc576139bb6137f0565b5b60006139ca84828501613991565b91505092915050565b600073ffffffffffffffffffffffffffffffffffffffff82169050919050565b60006139fe826139d3565b9050919050565b613a0e816139f3565b82525050565b6000602082019050613a296000830184613a05565b92915050565b613a38816139f3565b8114613a4357600080fd5b50565b600081359050613a5581613a2f565b92915050565b600060208284031215613a7157613a706137f0565b5b6000613a7f84828501613a46565b91505092915050565b600081519050919050565b600082825260208201905092915050565b6000819050602082019050919050565b613abd81613970565b82525050565b6000613acf8383613ab4565b60208301905092915050565b6000602082019050919050565b6000613af382613a88565b613afd8185613a93565b9350613b0883613aa4565b8060005b83811015613b39578151613b208882613ac3565b9750613b2b83613adb565b925050600181019050613b0c565b5085935050505092915050565b60006020820190508181036000830152613b608184613ae8565b905092915050565b60008060408385031215613b7f57613b7e6137f0565b5b6000613b8d85828601613a46565b9250506020613b9e85828601613991565b9150509250929050565b600080fd5b600080fd5b7f4e487b7100000000000000000000000000000000000000000000000000000000600052604160045260246000fd5b613bea82613904565b810181811067ffffffffffffffff82111715613c0957613c08613bb2565b5b80604052505050565b6000613c1c6137e6565b9050613c288282613be1565b919050565b600067ffffffffffffffff821115613c4857613c47613bb2565b5b613c5182613904565b9050602081019050919050565b82818337600083830152505050565b6000613c80613c7b84613c2d565b613c12565b905082815260208101848484011115613c9c57613c9b613bad565b5b613ca7848285613c5e565b509392505050565b600082601f830112613cc457613cc3613ba8565b5b8135613cd4848260208601613c6d565b91505092915050565b60008060408385031215613cf457613cf36137f0565b5b6000613d0285828601613a46565b925050602083013567ffffffffffffffff811115613d2357613d226137f5565b5b613d2f85828601613caf565b9150509250929050565b613d4281613970565b82525050565b6000602082019050613d5d6000830184613d39565b92915050565b600080600060608486031215613d7c57613d7b6137f0565b5b6000613d8a86828701613a46565b9350506020613d9b86828701613a46565b9250506040613dac86828701613991565b9150509250925092565b613dbf8161387f565b8114613dca57600080fd5b50565b600081359050613ddc81613db6565b92915050565b60008060408385031215613df957613df86137f0565b5b6000613e0785828601613a46565b9250506020613e1885828601613dcd565b9150509250929050565b600067ffffffffffffffff821115613e3d57613e3c613bb2565b5b613e4682613904565b9050602081019050919050565b6000613e66613e6184613e22565b613c12565b905082815260208101848484011115613e8257613e81613bad565b5b613e8d848285613c5e565b509392505050565b600082601f830112613eaa57613ea9613ba8565b5b8135613eba848260208601613e53565b91505092915050565b60008060008060808587031215613edd57613edc6137f0565b5b6000613eeb87828801613a46565b9450506020613efc87828801613a46565b9350506040613f0d87828801613991565b925050606085013567ffffffffffffffff811115613f2e57613f2d6137f5565b5b613f3a87828801613e95565b91505092959194509250565b600067ffffffffffffffff821115613f6157613f60613bb2565b5b602082029050602081019050919050565b600080fd5b6000613f8a613f8584613f46565b613c12565b90508083825260208201905060208402830185811115613fad57613fac613f72565b5b835b81811015613fd65780613fc28882613991565b845260208401935050602081019050613faf565b5050509392505050565b600082601f830112613ff557613ff4613ba8565b5b8135614005848260208601613f77565b91505092915050565b600060208284031215614024576140236137f0565b5b600082013567ffffffffffffffff811115614042576140416137f5565b5b61404e84828501613fe0565b91505092915050565b600081519050919050565b600082825260208201905092915050565b6000819050602082019050919050565b600082825260208201905092915050565b600061409f826138b5565b6140a98185614083565b93506140b98185602086016138d1565b6140c281613904565b840191505092915050565b60006140d98383614094565b905092915050565b6000602082019050919050565b60006140f982614057565b6141038185614062565b93508360208202850161411585614073565b8060005b85811015614151578484038952815161413285826140cd565b945061413d836140e1565b925060208a01995050600181019050614119565b50829750879550505050505092915050565b6000602082019050818103600083015261417d81846140ee565b905092915050565b6000806040838503121561419c5761419b6137f0565b5b60006141aa85828601613a46565b92505060206141bb85828601613a46565b9150509250929050565b7f4e487b7100000000000000000000000000000000000000000000000000000000600052602260045260246000fd5b6000600282049050600182168061420c57607f821691505b60208210810361421f5761421e6141c5565b5b50919050565b7f4552433732313a20617070726f76656420717565727920666f72206e6f6e657860008201527f697374656e7420746f6b656e0000000000000000000000000000000000000000602082015250565b6000614281602c836138c0565b915061428c82614225565b604082019050919050565b600060208201905081810360008301526142b081614274565b9050919050565b7f4e487b7100000000000000000000000000000000000000000000000000000000600052603260045260246000fd5b7f4e487b7100000000000000000000000000000000000000000000000000000000600052601160045260246000fd5b600061432082613970565b91507fffffffffffffffffffffffffffffffffffffffffffffffffffffffffffffffff8203614352576143516142e6565b5b600182019050919050565b7f4552433732313a20617070726f76616c20746f2063757272656e74206f776e6560008201527f7200000000000000000000000000000000000000000000000000000000000000602082015250565b60006143b96021836138c0565b91506143c48261435d565b604082019050919050565b600060208201905081810360008301526143e8816143ac565b9050919050565b7f4552433732313a20617070726f76652063616c6c6572206973206e6f74206f7760008201527f6e6572206e6f7220617070726f76656420666f7220616c6c0000000000000000602082015250565b600061444b6038836138c0565b9150614456826143ef565b604082019050919050565b6000602082019050818103600083015261447a8161443e565b9050919050565b7f536f7272792c20796f7520646f206e6f74206f776e20656e6f7567682062616c60008201527f616e6365203a2800000000000000000000000000000000000000000000000000602082015250565b60006144dd6027836138c0565b91506144e882614481565b604082019050919050565b6000602082019050818103600083015261450c816144d0565b9050919050565b7f4552433732313a207472616e736665722063616c6c6572206973206e6f74206f60008201527f776e6572206e6f7220617070726f766564000000000000000000000000000000602082015250565b600061456f6031836138c0565b915061457a82614513565b604082019050919050565b6000602082019050818103600083015261459e81614562565b9050919050565b7f455243373231456e756d657261626c653a206f776e657220696e646578206f7560008201527f74206f6620626f756e6473000000000000000000000000000000000000000000602082015250565b6000614601602b836138c0565b915061460c826145a5565b604082019050919050565b60006020820190508181036000830152614630816145f4565b9050919050565b7f4f776e61626c653a2063616c6c6572206973206e6f7420746865206f776e6572600082015250565b600061466d6020836138c0565b915061467882614637565b602082019050919050565b6000602082019050818103600083015261469c81614660565b9050919050565b7f455243373231456e756d657261626c653a20676c6f62616c20696e646578206f60008201527f7574206f6620626f756e64730000000000000000000000000000000000000000602082015250565b60006146ff602c836138c0565b915061470a826146a3565b604082019050919050565b6000602082019050818103600083015261472e816146f2565b9050919050565b7f4552433732313a206f776e657220717565727920666f72206e6f6e657869737460008201527f656e7420746f6b656e0000000000000000000000000000000000000000000000602082015250565b60006147916029836138c0565b915061479c82614735565b604082019050919050565b600060208201905081810360008301526147c081614784565b9050919050565b7f4552433732313a2062616c616e636520717565727920666f7220746865207a6560008201527f726f206164647265737300000000000000000000000000000000000000000000602082015250565b6000614823602a836138c0565b915061482e826147c7565b604082019050919050565b6000602082019050818103600083015261485281614816565b9050919050565b6000815190506148688161397a565b92915050565b600060208284031215614884576148836137f0565b5b600061489284828501614859565b91505092915050565b60006040820190506148b06000830185613a05565b6148bd6020830184613d39565b9392505050565b6000815190506148d381613db6565b92915050565b6000602082840312156148ef576148ee6137f0565b5b60006148fd848285016148c4565b91505092915050565b7f4f776e61626c653a206e6577206f776e657220697320746865207a65726f206160008201527f6464726573730000000000000000000000000000000000000000000000000000602082015250565b60006149626026836138c0565b915061496d82614906565b604082019050919050565b6000602082019050818103600083015261499181614955565b9050919050565b6000819050919050565b6000819050919050565b60006149c76149c26149bd84614998565b6149a2565b613970565b9050919050565b6149d7816149ac565b82525050565b60006060820190506149f26000830186613a05565b6149ff6020830185613a05565b614a0c60408301846149ce565b949350505050565b7f4552433732313a206f70657261746f7220717565727920666f72206e6f6e657860008201527f697374656e7420746f6b656e0000000000000000000000000000000000000000602082015250565b6000614a70602c836138c0565b9150614a7b82614a14565b604082019050919050565b60006020820190508181036000830152614a9f81614a63565b9050919050565b7f4552433732313a207472616e736665722066726f6d20696e636f72726563742060008201527f6f776e6572000000000000000000000000000000000000000000000000000000602082015250565b6000614b026025836138c0565b9150614b0d82614aa6565b604082019050919050565b60006020820190508181036000830152614b3181614af5565b9050919050565b7f4552433732313a207472616e7366657220746f20746865207a65726f2061646460008201527f7265737300000000000000000000000000000000000000000000000000000000602082015250565b6000614b946024836138c0565b9150614b9f82614b38565b604082019050919050565b60006020820190508181036000830152614bc381614b87565b9050919050565b6000614bd582613970565b9150614be083613970565b925082821015614bf357614bf26142e6565b5b828203905092915050565b6000614c0982613970565b9150614c1483613970565b9250827fffffffffffffffffffffffffffffffffffffffffffffffffffffffffffffffff03821115614c4957614c486142e6565b5b828201905092915050565b7f5061757361626c653a206e6f7420706175736564000000000000000000000000600082015250565b6000614c8a6014836138c0565b9150614c9582614c54565b602082019050919050565b60006020820190508181036000830152614cb981614c7d565b9050919050565b7f5061757361626c653a2070617573656400000000000000000000000000000000600082015250565b6000614cf66010836138c0565b9150614d0182614cc0565b602082019050919050565b60006020820190508181036000830152614d2581614ce9565b9050919050565b7f4552433732313a20617070726f766520746f2063616c6c657200000000000000600082015250565b6000614d626019836138c0565b9150614d6d82614d2c565b602082019050919050565b60006020820190508181036000830152614d9181614d55565b9050919050565b7f4552433732313a207472616e7366657220746f206e6f6e20455243373231526560008201527f63656976657220696d706c656d656e7465720000000000000000000000000000602082015250565b6000614df46032836138c0565b9150614dff82614d98565b604082019050919050565b60006020820190508181036000830152614e2381614de7565b9050919050565b7f45524337323155524953746f726167653a2055524920717565727920666f722060008201527f6e6f6e6578697374656e7420746f6b656e000000000000000000000000000000602082015250565b6000614e866031836138c0565b9150614e9182614e2a565b604082019050919050565b60006020820190508181036000830152614eb581614e79565b9050919050565b600081905092915050565b6000614ed2826138b5565b614edc8185614ebc565b9350614eec8185602086016138d1565b80840191505092915050565b6000614f048285614ec7565b9150614f108284614ec7565b91508190509392505050565b7f45524337323155524953746f726167653a2055524920736574206f66206e6f6e60008201527f6578697374656e7420746f6b656e000000000000000000000000000000000000602082015250565b6000614f78602e836138c0565b9150614f8382614f1c565b604082019050919050565b60006020820190508181036000830152614fa781614f6b565b9050919050565b600081519050919050565b600082825260208201905092915050565b6000614fd582614fae565b614fdf8185614fb9565b9350614fef8185602086016138d1565b614ff881613904565b840191505092915050565b60006080820190506150186000830187613a05565b6150256020830186613a05565b6150326040830185613d39565b81810360608301526150448184614fca565b905095945050505050565b60008151905061505e81613826565b92915050565b60006020828403121561507a576150796137f0565b5b60006150888482850161504f565b91505092915050565b7f4552433732314d657461646174613a2055524920717565727920666f72206e6f60008201527f6e6578697374656e7420746f6b656e0000000000000000000000000000000000602082015250565b60006150ed602f836138c0565b91506150f882615091565b604082019050919050565b6000602082019050818103600083015261511c816150e0565b9050919050565b7f4e487b7100000000000000000000000000000000000000000000000000000000600052601260045260246000fd5b600061515d82613970565b915061516883613970565b92508261517857615177615123565b5b828204905092915050565b600061518e82613970565b915061519983613970565b9250826151a9576151a8615123565b5b828206905092915050565b7f4552433732313a206d696e7420746f20746865207a65726f2061646472657373600082015250565b60006151ea6020836138c0565b91506151f5826151b4565b602082019050919050565b60006020820190508181036000830152615219816151dd565b9050919050565b7f4552433732313a20746f6b656e20616c7265616479206d696e74656400000000600082015250565b6000615256601c836138c0565b915061526182615220565b602082019050919050565b6000602082019050818103600083015261528581615249565b9050919050565b7f4e487b7100000000000000000000000000000000000000000000000000000000600052603160045260246000fdfea2646970667358221220d50e452dba8d1857d9e065922b3b75d1f75d250ba528d3b90bfbe5de708009fc64736f6c634300080d0033",
  "immutableReferences": {},
  "source": "// SPDX-License-Identifier: MIT\npragma solidity ^0.8.4;\n\nimport \"@openzeppelin/contracts/token/ERC721/ERC721.sol\";\nimport \"@openzeppelin/contracts/token/ERC721/extensions/ERC721URIStorage.sol\";\nimport \"@openzeppelin/contracts/security/Pausable.sol\";\nimport \"@openzeppelin/contracts/access/Ownable.sol\";\nimport \"@openzeppelin/contracts/utils/Counters.sol\";\nimport \"@openzeppelin/contracts/token/ERC721/extensions/ERC721Burnable.sol\";\nimport \"@openzeppelin/contracts/token/ERC721/extensions/ERC721Enumerable.sol\";\nimport \"./RocketToken.sol\";\n\ncontract RocketNFT is ERC721, ERC721URIStorage, Pausable, Ownable, ERC721Enumerable,  ERC721Burnable {\n    \n    // TOKEN ID AUTO-INCREMENT\n    using Counters for Counters.Counter;\n    Counters.Counter private _tokenIdCounter;\n\n    // PROPERTIES\n    uint public rocketPrice;\n    uint public maticPrice;\n    address public ROCKETTOKENADDRESS;\n    mapping(address => uint) rocketBalance; \n    mapping(address => uint) maticBalance; \n    mapping(address => bool) public freeMintUsed;\n    mapping(address => bool) public whitelisted;\n    mapping(uint256 => address) internal allowance;\n\n    // CONSTRUCTOR\n    constructor() ERC721('RocketNFT', 'RE') {\n        rocketPrice = 1;\n        maticPrice = 100000000000000000 wei; // 0.1 MATIC\n        whitelisted[0xFB4736eADE1a08c42E65aa187dd32C36E160AAcc] = true;\n        whitelisted[0x4B507F8f6a7b1650E926483f2b0dcb6FaEc9fcB1] = true;\n        whitelisted[0x37719D62Be56b9CB0ede514C5071894E1590bd14] = true;\n        whitelisted[0xEc206446346bF108E31cb79d28E93070dCc99FB8] = true;\n    }\n\n    // TRANSACTIONS\n    function mintForFree(address requester, string memory ipfs) public{\n        if(isWhitelisted(requester) && freeMintUsed[requester] == false){\n            safeMint(requester, ipfs);\n            freeMintUsed[requester] = true;\n        }else{\n            revert();\n        }\n    }\n\n    function mintWithMatic(address requester, string memory ipfs) public payable{\n        require(msg.value >= maticPrice, \"Sorry, you do not own enough balance :(\");\n        safeMint(requester, ipfs);\n    }\n\n    function mintWithRocket(address requester, string memory ipfs) public payable{\n        ERC20 RT = ERC20(ROCKETTOKENADDRESS);\n        // uint256 balance = RT.balanceOf(requester);\n        // require(balance >= 1, \">> Sorry, you do not own enough balance :(\");\n        RT.transferFrom(requester, address(this), 1);\n        safeMint(requester, ipfs);\n    }\n\n    function checkRocketBalance(address requester) external view returns(uint256){\n        ERC20 RT = ERC20(ROCKETTOKENADDRESS);\n        uint256 balance = RT.balanceOf(requester);\n        return balance;\n    }\n\n    //Withdraw MATIC\n    function withdrawWithMatic() public payable onlyOwner{\n        payable(msg.sender).transfer(address(this).balance);\n    }\n    //Withdraw ROCKET\n    function withdrawWithRocket() public onlyOwner {\n        ERC20 RT = ERC20(ROCKETTOKENADDRESS);\n        uint balance = RT.balanceOf(address(this));\n        RT.transfer(msg.sender, balance);\n    }\n    // SET ROCKETTOKENADDRESS\n    function setRocketTokenAddress(address rocketTokenAddress) public onlyOwner returns (address){\n        return ROCKETTOKENADDRESS = rocketTokenAddress;\n    }\n    function confirmRocketTokenAddress() external view returns (address){\n        return ROCKETTOKENADDRESS;\n    }\n    // TODO: Allowance\n    function getAllowance(uint256 tokenId) external view returns (address){\n        return allowance[tokenId];\n    }\n\n\n    // UTILITY FUNCTIONS\n    function isWhitelisted(address requester) public view returns(bool){\n        return whitelisted[requester];\n    }\n    function addToWhitelist(address receiver) public onlyOwner {\n        whitelisted[receiver] = true;\n    }\n\n    function checkFreeMintUsage(address requester) external view returns(bool){\n        return freeMintUsed[requester];\n    }\n    function getTokenURIs(uint[] memory tokenIds) public view returns (string[] memory){\n        string[] memory ipfsURIs = new string[](tokenIds.length);\n        uint i;\n        for(i = 0; i < tokenIds.length; i++){\n            ipfsURIs[i] = tokenURI(tokenIds[i]);\n        }\n        return ipfsURIs;\n    }\n    function isEligibleForFreeNFT(address requester) public view returns(bool){\n       if(whitelisted[requester] && freeMintUsed[requester] == false){\n           return true;\n       } else {\n           return false;\n       }\n    }\n    function getTokenIdsOfOwner(address owner) public view returns (uint[] memory) {\n        uint[] memory tokensOfOwner = new uint[](ERC721.balanceOf(owner));\n        uint bal = ERC721.balanceOf(owner);\n        uint i;\n        for(i = 0; i < bal; i++){\n            tokensOfOwner[i] = ERC721Enumerable.tokenOfOwnerByIndex(owner, i);\n        }\n       return tokensOfOwner;\n    }\n\n    // BASE FUNCTIONS\n    function safeMint(address to, string memory ipfsURI) public onlyOwner {\n        uint256 tokenId = _tokenIdCounter.current();\n        _tokenIdCounter.increment();\n        _safeMint(to, tokenId);\n        _setTokenURI(tokenId, ipfsURI);\n    }\n    function pause() public onlyOwner {\n        _pause();\n    }\n    function unpause() public onlyOwner {\n        _unpause();\n    }\n    function burn(uint256 tokenId) public override{\n        _burn(tokenId);\n    }\n    function _burn(uint256 tokenId) internal override(ERC721, ERC721URIStorage) {\n        super._burn(tokenId);\n    }\n    function tokenURI(uint256 tokenId) public view override(ERC721, ERC721URIStorage)\n    returns (string memory){\n        return super.tokenURI(tokenId);\n    }\n    function _beforeTokenTransfer(address from, address to, uint256 tokenId)\n        internal\n        override(ERC721, ERC721Enumerable){\n        super._beforeTokenTransfer(from, to, tokenId);\n    }\n    function supportsInterface(bytes4 interfaceId)\n        public\n        view\n        override(ERC721, ERC721Enumerable)\n        returns (bool){\n        return super.supportsInterface(interfaceId);\n    }\n\n}\n\n\n///////////////////// CONTRACT DRAFT //////////////////////\n    \n    // address[] whitelisted = [0xFB4736eADE1a08c42E65aa187dd32C36E160AAcc, 0x4B507F8f6a7b1650E926483f2b0dcb6FaEc9fcB1, 0x37719D62Be56b9CB0ede514C5071894E1590bd14];\n\n    // TODO: Create a function that communicates with the ERC20 RocketToken \n\n    // function mintFree(address acc, uint256 tokenId) public {\n    //     for(uint i = 0; i < whitelisted.length; i++){\n    //         if(whitelisted[i] == acc && freeMintRecord[acc] < 1){ \n    //             _mint(acc, tokenId);\n    //             _setTokenURI(tokenId, 'ipfs://bafkreig5s4oq574drfafphiyazroxxngmid3m6vensuvk3y2qvoz5ubhmi');\n    //             freeMintRecord[acc] += 1;\n    //         } else {\n    //             // redirect to payment.\n    //         }\n    //     } // TODO: error handling.\n    //     // return tokenURI(tokenId);\n    // }\n    \n    // function safeMint(address to, uint256 tokenId, string memory uri)\n    //     public\n    //     onlyOwner{\n    //     _safeMint(to, tokenId);\n    //     _setTokenURI(tokenId, uri);\n    // }",
  "sourcePath": "/Users/eileenai/Documents/codeboxx/Rocket_Elevators_Blockchain/contracts/RocketNFT.sol",
  "compiler": {
    "name": "solc",
    "version": "0.8.13+commit.abaa5c0e.Emscripten.clang"
  },
  "schemaVersion": "3.4.7",
  "updatedAt": "2022-05-06T22:53:45.557Z",
  "networkType": "ethereum",
  "devdoc": {
    "kind": "dev",
    "methods": {
      "approve(address,uint256)": {
        "details": "See {IERC721-approve}."
      },
      "balanceOf(address)": {
        "details": "See {IERC721-balanceOf}."
      },
      "burn(uint256)": {
        "details": "Burns `tokenId`. See {ERC721-_burn}. Requirements: - The caller must own `tokenId` or be an approved operator."
      },
      "getApproved(uint256)": {
        "details": "See {IERC721-getApproved}."
      },
      "isApprovedForAll(address,address)": {
        "details": "See {IERC721-isApprovedForAll}."
      },
      "name()": {
        "details": "See {IERC721Metadata-name}."
      },
      "owner()": {
        "details": "Returns the address of the current owner."
      },
      "ownerOf(uint256)": {
        "details": "See {IERC721-ownerOf}."
      },
      "paused()": {
        "details": "Returns true if the contract is paused, and false otherwise."
      },
      "renounceOwnership()": {
        "details": "Leaves the contract without owner. It will not be possible to call `onlyOwner` functions anymore. Can only be called by the current owner. NOTE: Renouncing ownership will leave the contract without an owner, thereby removing any functionality that is only available to the owner."
      },
      "safeTransferFrom(address,address,uint256)": {
        "details": "See {IERC721-safeTransferFrom}."
      },
      "safeTransferFrom(address,address,uint256,bytes)": {
        "details": "See {IERC721-safeTransferFrom}."
      },
      "setApprovalForAll(address,bool)": {
        "details": "See {IERC721-setApprovalForAll}."
      },
      "symbol()": {
        "details": "See {IERC721Metadata-symbol}."
      },
      "tokenByIndex(uint256)": {
        "details": "See {IERC721Enumerable-tokenByIndex}."
      },
      "tokenOfOwnerByIndex(address,uint256)": {
        "details": "See {IERC721Enumerable-tokenOfOwnerByIndex}."
      },
      "totalSupply()": {
        "details": "See {IERC721Enumerable-totalSupply}."
      },
      "transferFrom(address,address,uint256)": {
        "details": "See {IERC721-transferFrom}."
      },
      "transferOwnership(address)": {
        "details": "Transfers ownership of the contract to a new account (`newOwner`). Can only be called by the current owner."
      }
    },
    "version": 1
  },
  "userdoc": {
    "kind": "user",
    "methods": {},
    "version": 1
  }
}